{
  "_format": "hh-sol-artifact-1",
  "contractName": "CollectionV1",
  "sourceName": "contracts/CollectionV1.sol",
  "abi": [
    {
      "anonymous": false,
      "inputs": [
        {
          "indexed": true,
          "internalType": "address",
          "name": "owner",
          "type": "address"
        },
        {
          "indexed": true,
          "internalType": "address",
          "name": "approved",
          "type": "address"
        },
        {
          "indexed": true,
          "internalType": "uint256",
          "name": "tokenId",
          "type": "uint256"
        }
      ],
      "name": "Approval",
      "type": "event"
    },
    {
      "anonymous": false,
      "inputs": [
        {
          "indexed": true,
          "internalType": "address",
          "name": "owner",
          "type": "address"
        },
        {
          "indexed": true,
          "internalType": "address",
          "name": "operator",
          "type": "address"
        },
        {
          "indexed": false,
          "internalType": "bool",
          "name": "approved",
          "type": "bool"
        }
      ],
      "name": "ApprovalForAll",
      "type": "event"
    },
    {
      "anonymous": false,
      "inputs": [
        {
          "indexed": true,
          "internalType": "address",
          "name": "from",
          "type": "address"
        },
        {
          "indexed": true,
          "internalType": "address",
          "name": "to",
          "type": "address"
        },
        {
          "indexed": true,
          "internalType": "uint256",
          "name": "tokenId",
          "type": "uint256"
        }
      ],
      "name": "Transfer",
      "type": "event"
    },
    {
      "inputs": [
        {
          "internalType": "uint256",
          "name": "",
          "type": "uint256"
        }
      ],
      "name": "allNFTs",
      "outputs": [
        {
          "internalType": "string",
          "name": "name",
          "type": "string"
        },
        {
          "internalType": "string",
          "name": "uri",
          "type": "string"
        },
        {
          "internalType": "string",
          "name": "description",
          "type": "string"
        },
        {
          "internalType": "uint256",
          "name": "tokenId",
          "type": "uint256"
        },
        {
          "internalType": "address",
          "name": "creator",
          "type": "address"
        },
        {
          "internalType": "address",
          "name": "currentOwner",
          "type": "address"
        },
        {
          "internalType": "uint256",
          "name": "price",
          "type": "uint256"
        },
        {
          "internalType": "bool",
          "name": "forSale",
          "type": "bool"
        }
      ],
      "stateMutability": "view",
      "type": "function"
    },
    {
      "inputs": [
        {
          "internalType": "address",
          "name": "to",
          "type": "address"
        },
        {
          "internalType": "uint256",
          "name": "tokenId",
          "type": "uint256"
        }
      ],
      "name": "approve",
      "outputs": [],
      "stateMutability": "nonpayable",
      "type": "function"
    },
    {
      "inputs": [
        {
          "internalType": "address",
          "name": "owner",
          "type": "address"
        }
      ],
      "name": "balanceOf",
      "outputs": [
        {
          "internalType": "uint256",
          "name": "",
          "type": "uint256"
        }
      ],
      "stateMutability": "view",
      "type": "function"
    },
    {
      "inputs": [
        {
          "internalType": "uint256",
          "name": "tokenId",
          "type": "uint256"
        }
      ],
      "name": "burn",
      "outputs": [],
      "stateMutability": "nonpayable",
      "type": "function"
    },
    {
      "inputs": [
        {
          "internalType": "uint256",
          "name": "tokenId",
          "type": "uint256"
        }
      ],
      "name": "buy",
      "outputs": [],
      "stateMutability": "payable",
      "type": "function"
    },
    {
      "inputs": [
        {
          "internalType": "uint256",
          "name": "tokenId",
          "type": "uint256"
        }
      ],
      "name": "getApproved",
      "outputs": [
        {
          "internalType": "address",
          "name": "",
          "type": "address"
        }
      ],
      "stateMutability": "view",
      "type": "function"
    },
    {
      "inputs": [
        {
          "internalType": "uint256",
          "name": "tokenId",
          "type": "uint256"
        }
      ],
      "name": "getNFTInfo",
      "outputs": [
        {
          "internalType": "string",
          "name": "",
          "type": "string"
        },
        {
          "internalType": "string",
          "name": "",
          "type": "string"
        },
        {
          "internalType": "string",
          "name": "",
          "type": "string"
        },
        {
          "internalType": "address",
          "name": "",
          "type": "address"
        },
        {
          "internalType": "address",
          "name": "",
          "type": "address"
        },
        {
          "internalType": "uint256",
          "name": "",
          "type": "uint256"
        },
        {
          "internalType": "bool",
          "name": "",
          "type": "bool"
        }
      ],
      "stateMutability": "view",
      "type": "function"
    },
    {
      "inputs": [
        {
          "internalType": "address",
          "name": "addr",
          "type": "address"
        }
      ],
      "name": "getOwnedNFTs",
      "outputs": [
        {
          "internalType": "uint256[]",
          "name": "",
          "type": "uint256[]"
        }
      ],
      "stateMutability": "view",
      "type": "function"
    },
    {
      "inputs": [
        {
          "internalType": "string",
          "name": "name",
          "type": "string"
        },
        {
          "internalType": "string",
          "name": "symbol",
          "type": "string"
        }
      ],
      "name": "initialize",
      "outputs": [],
      "stateMutability": "nonpayable",
      "type": "function"
    },
    {
      "inputs": [
        {
          "internalType": "address",
          "name": "owner",
          "type": "address"
        },
        {
          "internalType": "address",
          "name": "operator",
          "type": "address"
        }
      ],
      "name": "isApprovedForAll",
      "outputs": [
        {
          "internalType": "bool",
          "name": "",
          "type": "bool"
        }
      ],
      "stateMutability": "view",
      "type": "function"
    },
    {
      "inputs": [
        {
          "internalType": "string",
          "name": "name",
          "type": "string"
        },
        {
          "internalType": "string",
          "name": "uri",
          "type": "string"
        },
        {
          "internalType": "string",
          "name": "desc",
          "type": "string"
        },
        {
          "internalType": "uint256",
          "name": "price",
          "type": "uint256"
        }
      ],
      "name": "mint",
      "outputs": [],
      "stateMutability": "nonpayable",
      "type": "function"
    },
    {
      "inputs": [],
      "name": "name",
      "outputs": [
        {
          "internalType": "string",
          "name": "",
          "type": "string"
        }
      ],
      "stateMutability": "view",
      "type": "function"
    },
    {
      "inputs": [
        {
          "internalType": "uint256",
          "name": "tokenId",
          "type": "uint256"
        }
      ],
      "name": "ownerOf",
      "outputs": [
        {
          "internalType": "address",
          "name": "",
          "type": "address"
        }
      ],
      "stateMutability": "view",
      "type": "function"
    },
    {
      "inputs": [
        {
          "internalType": "address",
          "name": "from",
          "type": "address"
        },
        {
          "internalType": "address",
          "name": "to",
          "type": "address"
        },
        {
          "internalType": "uint256",
          "name": "tokenId",
          "type": "uint256"
        }
      ],
      "name": "safeTransferFrom",
      "outputs": [],
      "stateMutability": "nonpayable",
      "type": "function"
    },
    {
      "inputs": [
        {
          "internalType": "address",
          "name": "from",
          "type": "address"
        },
        {
          "internalType": "address",
          "name": "to",
          "type": "address"
        },
        {
          "internalType": "uint256",
          "name": "tokenId",
          "type": "uint256"
        },
        {
          "internalType": "bytes",
          "name": "_data",
          "type": "bytes"
        }
      ],
      "name": "safeTransferFrom",
      "outputs": [],
      "stateMutability": "nonpayable",
      "type": "function"
    },
    {
      "inputs": [
        {
          "internalType": "address",
          "name": "operator",
          "type": "address"
        },
        {
          "internalType": "bool",
          "name": "approved",
          "type": "bool"
        }
      ],
      "name": "setApprovalForAll",
      "outputs": [],
      "stateMutability": "nonpayable",
      "type": "function"
    },
    {
      "inputs": [
        {
          "internalType": "uint256",
          "name": "tokenId",
          "type": "uint256"
        },
        {
          "internalType": "uint256",
          "name": "newPrice",
          "type": "uint256"
        }
      ],
      "name": "setNewPrice",
      "outputs": [],
      "stateMutability": "nonpayable",
      "type": "function"
    },
    {
      "inputs": [
        {
          "internalType": "bytes4",
          "name": "interfaceId",
          "type": "bytes4"
        }
      ],
      "name": "supportsInterface",
      "outputs": [
        {
          "internalType": "bool",
          "name": "",
          "type": "bool"
        }
      ],
      "stateMutability": "view",
      "type": "function"
    },
    {
      "inputs": [
        {
          "internalType": "uint256",
          "name": "tokenId",
          "type": "uint256"
        }
      ],
      "name": "switchForSale",
      "outputs": [],
      "stateMutability": "nonpayable",
      "type": "function"
    },
    {
      "inputs": [],
      "name": "symbol",
      "outputs": [
        {
          "internalType": "string",
          "name": "",
          "type": "string"
        }
      ],
      "stateMutability": "view",
      "type": "function"
    },
    {
      "inputs": [
        {
          "internalType": "uint256",
          "name": "index",
          "type": "uint256"
        }
      ],
      "name": "tokenByIndex",
      "outputs": [
        {
          "internalType": "uint256",
          "name": "",
          "type": "uint256"
        }
      ],
      "stateMutability": "view",
      "type": "function"
    },
    {
      "inputs": [
        {
          "internalType": "address",
          "name": "owner",
          "type": "address"
        },
        {
          "internalType": "uint256",
          "name": "index",
          "type": "uint256"
        }
      ],
      "name": "tokenOfOwnerByIndex",
      "outputs": [
        {
          "internalType": "uint256",
          "name": "",
          "type": "uint256"
        }
      ],
      "stateMutability": "view",
      "type": "function"
    },
    {
      "inputs": [
        {
          "internalType": "uint256",
          "name": "tokenId",
          "type": "uint256"
        }
      ],
      "name": "tokenURI",
      "outputs": [
        {
          "internalType": "string",
          "name": "",
          "type": "string"
        }
      ],
      "stateMutability": "view",
      "type": "function"
    },
    {
      "inputs": [],
      "name": "totalSupply",
      "outputs": [
        {
          "internalType": "uint256",
          "name": "",
          "type": "uint256"
        }
      ],
      "stateMutability": "view",
      "type": "function"
    },
    {
      "inputs": [
        {
          "internalType": "address",
          "name": "from",
          "type": "address"
        },
        {
          "internalType": "address",
          "name": "to",
          "type": "address"
        },
        {
          "internalType": "uint256",
          "name": "tokenId",
          "type": "uint256"
        }
      ],
      "name": "transferFrom",
      "outputs": [],
      "stateMutability": "nonpayable",
      "type": "function"
    },
    {
      "inputs": [
        {
          "internalType": "string",
          "name": "",
          "type": "string"
        }
      ],
      "name": "uriExists",
      "outputs": [
        {
          "internalType": "bool",
          "name": "",
          "type": "bool"
        }
      ],
      "stateMutability": "view",
      "type": "function"
    }
  ],
  "bytecode": "0x608060405234801561001057600080fd5b50614be1806100206000396000f3fe6080604052600436106101815760003560e01c80636352211e116100d1578063b88d4fde1161008a578063d188929f11610064578063d188929f146105e1578063d96a094a14610624578063e23a60fe14610640578063e985e9c51461066957610181565b8063b88d4fde14610537578063bf162d6714610560578063c87b56dd146105a457610181565b80636352211e1461040357806365e10f191461044057806370a082311461046957806395d89b41146104a6578063a22cb465146104d1578063a4a023b1146104fa57610181565b806323b872dd1161013e57806342842e0e1161011857806342842e0e1461034b57806342966c68146103745780634cd88b761461039d5780634f6ccce7146103c657610181565b806323b872dd146102bc5780632f745c59146102e557806331b6475c1461032257610181565b806301ffc9a71461018657806306fdde03146101c3578063081812fc146101ee578063095ea7b31461022b57806318148f1b1461025457806318160ddd14610291575b600080fd5b34801561019257600080fd5b506101ad60048036038101906101a89190613736565b6106a6565b6040516101ba9190613df7565b60405180910390f35b3480156101cf57600080fd5b506101d8610720565b6040516101e59190613e12565b60405180910390f35b3480156101fa57600080fd5b50610215600480360381019061021091906138e0565b6107b2565b6040516102229190613d6e565b60405180910390f35b34801561023757600080fd5b50610252600480360381019061024d91906136fa565b610837565b005b34801561026057600080fd5b5061027b6004803603810190610276919061358f565b61094f565b6040516102889190613dd5565b60405180910390f35b34801561029d57600080fd5b506102a6610a4b565b6040516102b391906141ab565b60405180910390f35b3480156102c857600080fd5b506102e360048036038101906102de91906135f4565b610a58565b005b3480156102f157600080fd5b5061030c600480360381019061030791906136fa565b610ab8565b60405161031991906141ab565b60405180910390f35b34801561032e57600080fd5b5061034960048036038101906103449190613835565b610b5d565b005b34801561035757600080fd5b50610372600480360381019061036d91906135f4565b610d90565b005b34801561038057600080fd5b5061039b600480360381019061039691906138e0565b610db0565b005b3480156103a957600080fd5b506103c460048036038101906103bf91906137c9565b610e6a565b005b3480156103d257600080fd5b506103ed60048036038101906103e891906138e0565b610fc5565b6040516103fa91906141ab565b60405180910390f35b34801561040f57600080fd5b5061042a600480360381019061042591906138e0565b61105c565b6040516104379190613d6e565b60405180910390f35b34801561044c57600080fd5b50610467600480360381019061046291906138e0565b61110e565b005b34801561047557600080fd5b50610490600480360381019061048b919061358f565b6112a6565b60405161049d91906141ab565b60405180910390f35b3480156104b257600080fd5b506104bb61135e565b6040516104c89190613e12565b60405180910390f35b3480156104dd57600080fd5b506104f860048036038101906104f391906136be565b6113f0565b005b34801561050657600080fd5b50610521600480360381019061051c9190613788565b611406565b60405161052e9190613df7565b60405180910390f35b34801561054357600080fd5b5061055e60048036038101906105599190613643565b61143c565b005b34801561056c57600080fd5b50610587600480360381019061058291906138e0565b61149e565b60405161059b989796959493929190613eb8565b60405180910390f35b3480156105b057600080fd5b506105cb60048036038101906105c691906138e0565b6116cb565b6040516105d89190613e12565b60405180910390f35b3480156105ed57600080fd5b50610608600480360381019061060391906138e0565b611772565b60405161061b9796959493929190613e34565b60405180910390f35b61063e600480360381019061063991906138e0565b6117ed565b005b34801561064c57600080fd5b5061066760048036038101906106629190613909565b611a65565b005b34801561067557600080fd5b50610690600480360381019061068b91906135b8565b611bf3565b60405161069d9190613df7565b60405180910390f35b60007f780e9d63000000000000000000000000000000000000000000000000000000007bffffffffffffffffffffffffffffffffffffffffffffffffffffffff1916827bffffffffffffffffffffffffffffffffffffffffffffffffffffffff19161480610719575061071882611c87565b5b9050919050565b60606065805461072f9061443a565b80601f016020809104026020016040519081016040528092919081815260200182805461075b9061443a565b80156107a85780601f1061077d576101008083540402835291602001916107a8565b820191906000526020600020905b81548152906001019060200180831161078b57829003601f168201915b5050505050905090565b60006107bd82611d69565b6107fc576040517f08c379a00000000000000000000000000000000000000000000000000000000081526004016107f3906140cb565b60405180910390fd5b6069600083815260200190815260200160002060009054906101000a900473ffffffffffffffffffffffffffffffffffffffff169050919050565b60006108428261105c565b90508073ffffffffffffffffffffffffffffffffffffffff168373ffffffffffffffffffffffffffffffffffffffff1614156108b3576040517f08c379a00000000000000000000000000000000000000000000000000000000081526004016108aa9061412b565b60405180910390fd5b8073ffffffffffffffffffffffffffffffffffffffff166108d2611dd5565b73ffffffffffffffffffffffffffffffffffffffff1614806109015750610900816108fb611dd5565b611bf3565b5b610940576040517f08c379a00000000000000000000000000000000000000000000000000000000081526004016109379061402b565b60405180910390fd5b61094a8383611ddd565b505050565b6060600061095c836112a6565b67ffffffffffffffff81111561099b577f4e487b7100000000000000000000000000000000000000000000000000000000600052604160045260246000fd5b6040519080825280602002602001820160405280156109c95781602001602082028036833780820191505090505b50905060005b6109d8846112a6565b811015610a41576109e98482610ab8565b828281518110610a22577f4e487b7100000000000000000000000000000000000000000000000000000000600052603260045260246000fd5b6020026020010181815250508080610a399061449d565b9150506109cf565b5080915050919050565b6000609980549050905090565b610a69610a63611dd5565b82611e96565b610aa8576040517f08c379a0000000000000000000000000000000000000000000000000000000008152600401610a9f9061414b565b60405180910390fd5b610ab3838383611f74565b505050565b6000610ac3836112a6565b8210610b04576040517f08c379a0000000000000000000000000000000000000000000000000000000008152600401610afb90613f4b565b60405180910390fd5b609760008473ffffffffffffffffffffffffffffffffffffffff1673ffffffffffffffffffffffffffffffffffffffff168152602001908152602001600020600083815260200190815260200160002054905092915050565b60cb83604051610b6d9190613d33565b908152602001604051809103902060009054906101000a900460ff1615610b9357600080fd5b60c96000815480929190610ba69061449d565b9190505550610bb73360c9546121db565b60405180610100016040528085815260200184815260200183815260200160c95481526020013373ffffffffffffffffffffffffffffffffffffffff1681526020013373ffffffffffffffffffffffffffffffffffffffff1681526020018281526020016001151581525060ca600060c95481526020019081526020016000206000820151816000019080519060200190610c53929190613340565b506020820151816001019080519060200190610c70929190613340565b506040820151816002019080519060200190610c8d929190613340565b506060820151816003015560808201518160040160006101000a81548173ffffffffffffffffffffffffffffffffffffffff021916908373ffffffffffffffffffffffffffffffffffffffff16021790555060a08201518160050160006101000a81548173ffffffffffffffffffffffffffffffffffffffff021916908373ffffffffffffffffffffffffffffffffffffffff16021790555060c0820151816006015560e08201518160070160006101000a81548160ff021916908315150217905550905050600160cb84604051610d659190613d33565b908152602001604051809103902060006101000a81548160ff02191690831515021790555050505050565b610dab8383836040518060200160405280600081525061143c565b505050565b80610dba8161105c565b73ffffffffffffffffffffffffffffffffffffffff163373ffffffffffffffffffffffffffffffffffffffff1614610df157600080fd5b610dfa82611d69565b610e0357600080fd5b610e0c826121f9565b6000610e1783612316565b60e00190151590811515815250506000610e3083612316565b60a0019073ffffffffffffffffffffffffffffffffffffffff16908173ffffffffffffffffffffffffffffffffffffffff16815250505050565b600060019054906101000a900460ff16610e925760008054906101000a900460ff1615610e9b565b610e9a6125d5565b5b610eda576040517f08c379a0000000000000000000000000000000000000000000000000000000008152600401610ed19061408b565b60405180910390fd5b60008060019054906101000a900460ff161590508015610f2a576001600060016101000a81548160ff02191690831515021790555060016000806101000a81548160ff0219169083151502179055505b60cc60009054906101000a900460ff1615610f7a576040517f08c379a0000000000000000000000000000000000000000000000000000000008152600401610f71906140eb565b60405180910390fd5b610f8483836125e6565b600160cc60006101000a81548160ff0219169083151502179055508015610fc05760008060016101000a81548160ff0219169083151502179055505b505050565b6000610fcf610a4b565b8210611010576040517f08c379a00000000000000000000000000000000000000000000000000000000081526004016110079061416b565b60405180910390fd5b6099828154811061104a577f4e487b7100000000000000000000000000000000000000000000000000000000600052603260045260246000fd5b90600052602060002001549050919050565b6000806067600084815260200190815260200160002060009054906101000a900473ffffffffffffffffffffffffffffffffffffffff169050600073ffffffffffffffffffffffffffffffffffffffff168173ffffffffffffffffffffffffffffffffffffffff161415611105576040517f08c379a00000000000000000000000000000000000000000000000000000000081526004016110fc9061406b565b60405180910390fd5b80915050919050565b806111188161105c565b73ffffffffffffffffffffffffffffffffffffffff163373ffffffffffffffffffffffffffffffffffffffff161461114f57600080fd5b600061115a83612316565b90508060e00151158160e00190151590811515815250508060ca600085815260200190815260200160002060008201518160000190805190602001906111a1929190613340565b5060208201518160010190805190602001906111be929190613340565b5060408201518160020190805190602001906111db929190613340565b506060820151816003015560808201518160040160006101000a81548173ffffffffffffffffffffffffffffffffffffffff021916908373ffffffffffffffffffffffffffffffffffffffff16021790555060a08201518160050160006101000a81548173ffffffffffffffffffffffffffffffffffffffff021916908373ffffffffffffffffffffffffffffffffffffffff16021790555060c0820151816006015560e08201518160070160006101000a81548160ff021916908315150217905550905050505050565b60008073ffffffffffffffffffffffffffffffffffffffff168273ffffffffffffffffffffffffffffffffffffffff161415611317576040517f08c379a000000000000000000000000000000000000000000000000000000000815260040161130e9061404b565b60405180910390fd5b606860008373ffffffffffffffffffffffffffffffffffffffff1673ffffffffffffffffffffffffffffffffffffffff168152602001908152602001600020549050919050565b60606066805461136d9061443a565b80601f01602080910402602001604051908101604052809291908181526020018280546113999061443a565b80156113e65780601f106113bb576101008083540402835291602001916113e6565b820191906000526020600020905b8154815290600101906020018083116113c957829003601f168201915b5050505050905090565b6114026113fb611dd5565b8383612643565b5050565b60cb818051602081018201805184825260208301602085012081835280955050505050506000915054906101000a900460ff1681565b61144d611447611dd5565b83611e96565b61148c576040517f08c379a00000000000000000000000000000000000000000000000000000000081526004016114839061414b565b60405180910390fd5b611498848484846127b0565b50505050565b60ca6020528060005260406000206000915090508060000180546114c19061443a565b80601f01602080910402602001604051908101604052809291908181526020018280546114ed9061443a565b801561153a5780601f1061150f5761010080835404028352916020019161153a565b820191906000526020600020905b81548152906001019060200180831161151d57829003601f168201915b50505050509080600101805461154f9061443a565b80601f016020809104026020016040519081016040528092919081815260200182805461157b9061443a565b80156115c85780601f1061159d576101008083540402835291602001916115c8565b820191906000526020600020905b8154815290600101906020018083116115ab57829003601f168201915b5050505050908060020180546115dd9061443a565b80601f01602080910402602001604051908101604052809291908181526020018280546116099061443a565b80156116565780601f1061162b57610100808354040283529160200191611656565b820191906000526020600020905b81548152906001019060200180831161163957829003601f168201915b5050505050908060030154908060040160009054906101000a900473ffffffffffffffffffffffffffffffffffffffff16908060050160009054906101000a900473ffffffffffffffffffffffffffffffffffffffff16908060060154908060070160009054906101000a900460ff16905088565b60606116d682611d69565b611715576040517f08c379a000000000000000000000000000000000000000000000000000000000815260040161170c9061410b565b60405180910390fd5b600061171f61280c565b9050600081511161173f576040518060200160405280600081525061176a565b8061174984612823565b60405160200161175a929190613d4a565b6040516020818303038152906040525b915050919050565b606080606060008060008061178688612316565b6000015161179389612316565b602001516117a08a612316565b604001516117ad8b612316565b608001516117ba8c61105c565b6117c38d612316565b60c001516117d08e612316565b60e001519650965096509650965096509650919395979092949650565b6117f681611d69565b6117ff57600080fd5b3373ffffffffffffffffffffffffffffffffffffffff1661181f8261105c565b73ffffffffffffffffffffffffffffffffffffffff16141561184057600080fd5b61184981612316565b60e0015161185657600080fd5b61185f81612316565b60c0015134101561186f57600080fd5b61188261187b8261105c565b3383611f74565b61188b8161105c565b73ffffffffffffffffffffffffffffffffffffffff166108fc349081150290604051600060405180830381858888f193505050501580156118d0573d6000803e3d6000fd5b50336118db82612316565b60a0019073ffffffffffffffffffffffffffffffffffffffff16908173ffffffffffffffffffffffffffffffffffffffff1681525050600061191c82612316565b60e001901515908115158152505061193381612316565b60ca60008381526020019081526020016000206000820151816000019080519060200190611962929190613340565b50602082015181600101908051906020019061197f929190613340565b50604082015181600201908051906020019061199c929190613340565b506060820151816003015560808201518160040160006101000a81548173ffffffffffffffffffffffffffffffffffffffff021916908373ffffffffffffffffffffffffffffffffffffffff16021790555060a08201518160050160006101000a81548173ffffffffffffffffffffffffffffffffffffffff021916908373ffffffffffffffffffffffffffffffffffffffff16021790555060c0820151816006015560e08201518160070160006101000a81548160ff02191690831515021790555090505050565b81611a6f8161105c565b73ffffffffffffffffffffffffffffffffffffffff163373ffffffffffffffffffffffffffffffffffffffff1614611aa657600080fd5b6000611ab184612316565b9050828160c00181815250508060ca60008681526020019081526020016000206000820151816000019080519060200190611aed929190613340565b506020820151816001019080519060200190611b0a929190613340565b506040820151816002019080519060200190611b27929190613340565b506060820151816003015560808201518160040160006101000a81548173ffffffffffffffffffffffffffffffffffffffff021916908373ffffffffffffffffffffffffffffffffffffffff16021790555060a08201518160050160006101000a81548173ffffffffffffffffffffffffffffffffffffffff021916908373ffffffffffffffffffffffffffffffffffffffff16021790555060c0820151816006015560e08201518160070160006101000a81548160ff02191690831515021790555090505050505050565b6000606a60008473ffffffffffffffffffffffffffffffffffffffff1673ffffffffffffffffffffffffffffffffffffffff16815260200190815260200160002060008373ffffffffffffffffffffffffffffffffffffffff1673ffffffffffffffffffffffffffffffffffffffff16815260200190815260200160002060009054906101000a900460ff16905092915050565b60007f80ac58cd000000000000000000000000000000000000000000000000000000007bffffffffffffffffffffffffffffffffffffffffffffffffffffffff1916827bffffffffffffffffffffffffffffffffffffffffffffffffffffffff19161480611d5257507f5b5e139f000000000000000000000000000000000000000000000000000000007bffffffffffffffffffffffffffffffffffffffffffffffffffffffff1916827bffffffffffffffffffffffffffffffffffffffffffffffffffffffff1916145b80611d625750611d61826129d0565b5b9050919050565b60008073ffffffffffffffffffffffffffffffffffffffff166067600084815260200190815260200160002060009054906101000a900473ffffffffffffffffffffffffffffffffffffffff1673ffffffffffffffffffffffffffffffffffffffff1614159050919050565b600033905090565b816069600083815260200190815260200160002060006101000a81548173ffffffffffffffffffffffffffffffffffffffff021916908373ffffffffffffffffffffffffffffffffffffffff160217905550808273ffffffffffffffffffffffffffffffffffffffff16611e508361105c565b73ffffffffffffffffffffffffffffffffffffffff167f8c5be1e5ebec7d5bd14f71427d1e84f3dd0314c0f7b2291e5b200ac8c7c3b92560405160405180910390a45050565b6000611ea182611d69565b611ee0576040517f08c379a0000000000000000000000000000000000000000000000000000000008152600401611ed79061400b565b60405180910390fd5b6000611eeb8361105c565b90508073ffffffffffffffffffffffffffffffffffffffff168473ffffffffffffffffffffffffffffffffffffffff161480611f5a57508373ffffffffffffffffffffffffffffffffffffffff16611f42846107b2565b73ffffffffffffffffffffffffffffffffffffffff16145b80611f6b5750611f6a8185611bf3565b5b91505092915050565b8273ffffffffffffffffffffffffffffffffffffffff16611f948261105c565b73ffffffffffffffffffffffffffffffffffffffff1614611fea576040517f08c379a0000000000000000000000000000000000000000000000000000000008152600401611fe190613f8b565b60405180910390fd5b600073ffffffffffffffffffffffffffffffffffffffff168273ffffffffffffffffffffffffffffffffffffffff16141561205a576040517f08c379a000000000000000000000000000000000000000000000000000000000815260040161205190613fcb565b60405180910390fd5b612065838383612a3a565b612070600082611ddd565b6001606860008573ffffffffffffffffffffffffffffffffffffffff1673ffffffffffffffffffffffffffffffffffffffff16815260200190815260200160002060008282546120c09190614350565b925050819055506001606860008473ffffffffffffffffffffffffffffffffffffffff1673ffffffffffffffffffffffffffffffffffffffff168152602001908152602001600020600082825461211791906142c9565b92505081905550816067600083815260200190815260200160002060006101000a81548173ffffffffffffffffffffffffffffffffffffffff021916908373ffffffffffffffffffffffffffffffffffffffff160217905550808273ffffffffffffffffffffffffffffffffffffffff168473ffffffffffffffffffffffffffffffffffffffff167fddf252ad1be2c89b69c2b068fc378daa952ba7f163c4a11628f55a4df523b3ef60405160405180910390a46121d6838383612b4e565b505050565b6121f5828260405180602001604052806000815250612b53565b5050565b60006122048261105c565b905061221281600084612a3a565b61221d600083611ddd565b6001606860008373ffffffffffffffffffffffffffffffffffffffff1673ffffffffffffffffffffffffffffffffffffffff168152602001908152602001600020600082825461226d9190614350565b925050819055506067600083815260200190815260200160002060006101000a81549073ffffffffffffffffffffffffffffffffffffffff021916905581600073ffffffffffffffffffffffffffffffffffffffff168273ffffffffffffffffffffffffffffffffffffffff167fddf252ad1be2c89b69c2b068fc378daa952ba7f163c4a11628f55a4df523b3ef60405160405180910390a461231281600084612b4e565b5050565b61231e6133c6565b60ca60008381526020019081526020016000206040518061010001604052908160008201805461234d9061443a565b80601f01602080910402602001604051908101604052809291908181526020018280546123799061443a565b80156123c65780601f1061239b576101008083540402835291602001916123c6565b820191906000526020600020905b8154815290600101906020018083116123a957829003601f168201915b505050505081526020016001820180546123df9061443a565b80601f016020809104026020016040519081016040528092919081815260200182805461240b9061443a565b80156124585780601f1061242d57610100808354040283529160200191612458565b820191906000526020600020905b81548152906001019060200180831161243b57829003601f168201915b505050505081526020016002820180546124719061443a565b80601f016020809104026020016040519081016040528092919081815260200182805461249d9061443a565b80156124ea5780601f106124bf576101008083540402835291602001916124ea565b820191906000526020600020905b8154815290600101906020018083116124cd57829003601f168201915b50505050508152602001600382015481526020016004820160009054906101000a900473ffffffffffffffffffffffffffffffffffffffff1673ffffffffffffffffffffffffffffffffffffffff1673ffffffffffffffffffffffffffffffffffffffff1681526020016005820160009054906101000a900473ffffffffffffffffffffffffffffffffffffffff1673ffffffffffffffffffffffffffffffffffffffff1673ffffffffffffffffffffffffffffffffffffffff168152602001600682015481526020016007820160009054906101000a900460ff1615151515815250509050919050565b60006125e030612bae565b15905090565b600060019054906101000a900460ff16612635576040517f08c379a000000000000000000000000000000000000000000000000000000000815260040161262c9061418b565b60405180910390fd5b61263f8282612bd1565b5050565b8173ffffffffffffffffffffffffffffffffffffffff168373ffffffffffffffffffffffffffffffffffffffff1614156126b2576040517f08c379a00000000000000000000000000000000000000000000000000000000081526004016126a990613feb565b60405180910390fd5b80606a60008573ffffffffffffffffffffffffffffffffffffffff1673ffffffffffffffffffffffffffffffffffffffff16815260200190815260200160002060008473ffffffffffffffffffffffffffffffffffffffff1673ffffffffffffffffffffffffffffffffffffffff16815260200190815260200160002060006101000a81548160ff0219169083151502179055508173ffffffffffffffffffffffffffffffffffffffff168373ffffffffffffffffffffffffffffffffffffffff167f17307eab39ab6107e8899845ad3d59bd9653f200f220920489ca2b5937696c31836040516127a39190613df7565b60405180910390a3505050565b6127bb848484611f74565b6127c784848484612c52565b612806576040517f08c379a00000000000000000000000000000000000000000000000000000000081526004016127fd90613f6b565b60405180910390fd5b50505050565b606060405180602001604052806000815250905090565b6060600082141561286b576040518060400160405280600181526020017f300000000000000000000000000000000000000000000000000000000000000081525090506129cb565b600082905060005b6000821461289d5780806128869061449d565b915050600a82612896919061431f565b9150612873565b60008167ffffffffffffffff8111156128df577f4e487b7100000000000000000000000000000000000000000000000000000000600052604160045260246000fd5b6040519080825280601f01601f1916602001820160405280156129115781602001600182028036833780820191505090505b5090505b600085146129c45760018261292a9190614350565b9150600a8561293991906144e6565b603061294591906142c9565b60f81b818381518110612981577f4e487b7100000000000000000000000000000000000000000000000000000000600052603260045260246000fd5b60200101907effffffffffffffffffffffffffffffffffffffffffffffffffffffffffffff1916908160001a905350600a856129bd919061431f565b9450612915565b8093505050505b919050565b60007f01ffc9a7000000000000000000000000000000000000000000000000000000007bffffffffffffffffffffffffffffffffffffffffffffffffffffffff1916827bffffffffffffffffffffffffffffffffffffffffffffffffffffffff1916149050919050565b612a45838383612de9565b600073ffffffffffffffffffffffffffffffffffffffff168373ffffffffffffffffffffffffffffffffffffffff161415612a8857612a8381612dee565b612ac7565b8173ffffffffffffffffffffffffffffffffffffffff168373ffffffffffffffffffffffffffffffffffffffff1614612ac657612ac58382612e37565b5b5b600073ffffffffffffffffffffffffffffffffffffffff168273ffffffffffffffffffffffffffffffffffffffff161415612b0a57612b0581612fa4565b612b49565b8273ffffffffffffffffffffffffffffffffffffffff168273ffffffffffffffffffffffffffffffffffffffff1614612b4857612b4782826130e7565b5b5b505050565b505050565b612b5d8383613166565b612b6a6000848484612c52565b612ba9576040517f08c379a0000000000000000000000000000000000000000000000000000000008152600401612ba090613f6b565b60405180910390fd5b505050565b6000808273ffffffffffffffffffffffffffffffffffffffff163b119050919050565b600060019054906101000a900460ff16612c20576040517f08c379a0000000000000000000000000000000000000000000000000000000008152600401612c179061418b565b60405180910390fd5b8160659080519060200190612c36929190613340565b508060669080519060200190612c4d929190613340565b505050565b6000612c738473ffffffffffffffffffffffffffffffffffffffff16612bae565b15612ddc578373ffffffffffffffffffffffffffffffffffffffff1663150b7a02612c9c611dd5565b8786866040518563ffffffff1660e01b8152600401612cbe9493929190613d89565b602060405180830381600087803b158015612cd857600080fd5b505af1925050508015612d0957506040513d601f19601f82011682018060405250810190612d06919061375f565b60015b612d8c573d8060008114612d39576040519150601f19603f3d011682016040523d82523d6000602084013e612d3e565b606091505b50600081511415612d84576040517f08c379a0000000000000000000000000000000000000000000000000000000008152600401612d7b90613f6b565b60405180910390fd5b805181602001fd5b63150b7a0260e01b7bffffffffffffffffffffffffffffffffffffffffffffffffffffffff1916817bffffffffffffffffffffffffffffffffffffffffffffffffffffffff191614915050612de1565b600190505b949350505050565b505050565b609980549050609a600083815260200190815260200160002081905550609981908060018154018082558091505060019003906000526020600020016000909190919091505550565b60006001612e44846112a6565b612e4e9190614350565b9050600060986000848152602001908152602001600020549050818114612f33576000609760008673ffffffffffffffffffffffffffffffffffffffff1673ffffffffffffffffffffffffffffffffffffffff168152602001908152602001600020600084815260200190815260200160002054905080609760008773ffffffffffffffffffffffffffffffffffffffff1673ffffffffffffffffffffffffffffffffffffffff168152602001908152602001600020600084815260200190815260200160002081905550816098600083815260200190815260200160002081905550505b6098600084815260200190815260200160002060009055609760008573ffffffffffffffffffffffffffffffffffffffff1673ffffffffffffffffffffffffffffffffffffffff16815260200190815260200160002060008381526020019081526020016000206000905550505050565b60006001609980549050612fb89190614350565b90506000609a600084815260200190815260200160002054905060006099838154811061300e577f4e487b7100000000000000000000000000000000000000000000000000000000600052603260045260246000fd5b906000526020600020015490508060998381548110613056577f4e487b7100000000000000000000000000000000000000000000000000000000600052603260045260246000fd5b906000526020600020018190555081609a600083815260200190815260200160002081905550609a60008581526020019081526020016000206000905560998054806130cb577f4e487b7100000000000000000000000000000000000000000000000000000000600052603160045260246000fd5b6001900381819060005260206000200160009055905550505050565b60006130f2836112a6565b905081609760008573ffffffffffffffffffffffffffffffffffffffff1673ffffffffffffffffffffffffffffffffffffffff168152602001908152602001600020600083815260200190815260200160002081905550806098600084815260200190815260200160002081905550505050565b600073ffffffffffffffffffffffffffffffffffffffff168273ffffffffffffffffffffffffffffffffffffffff1614156131d6576040517f08c379a00000000000000000000000000000000000000000000000000000000081526004016131cd906140ab565b60405180910390fd5b6131df81611d69565b1561321f576040517f08c379a000000000000000000000000000000000000000000000000000000000815260040161321690613fab565b60405180910390fd5b61322b60008383612a3a565b6001606860008473ffffffffffffffffffffffffffffffffffffffff1673ffffffffffffffffffffffffffffffffffffffff168152602001908152602001600020600082825461327b91906142c9565b92505081905550816067600083815260200190815260200160002060006101000a81548173ffffffffffffffffffffffffffffffffffffffff021916908373ffffffffffffffffffffffffffffffffffffffff160217905550808273ffffffffffffffffffffffffffffffffffffffff16600073ffffffffffffffffffffffffffffffffffffffff167fddf252ad1be2c89b69c2b068fc378daa952ba7f163c4a11628f55a4df523b3ef60405160405180910390a461333c60008383612b4e565b5050565b82805461334c9061443a565b90600052602060002090601f01602090048101928261336e57600085556133b5565b82601f1061338757805160ff19168380011785556133b5565b828001600101855582156133b5579182015b828111156133b4578251825591602001919060010190613399565b5b5090506133c29190613439565b5090565b60405180610100016040528060608152602001606081526020016060815260200160008152602001600073ffffffffffffffffffffffffffffffffffffffff168152602001600073ffffffffffffffffffffffffffffffffffffffff168152602001600081526020016000151581525090565b5b8082111561345257600081600090555060010161343a565b5090565b6000613469613464846141eb565b6141c6565b90508281526020810184848401111561348157600080fd5b61348c8482856143f8565b509392505050565b60006134a76134a28461421c565b6141c6565b9050828152602081018484840111156134bf57600080fd5b6134ca8482856143f8565b509392505050565b6000813590506134e181614b4f565b92915050565b6000813590506134f681614b66565b92915050565b60008135905061350b81614b7d565b92915050565b60008151905061352081614b7d565b92915050565b600082601f83011261353757600080fd5b8135613547848260208601613456565b91505092915050565b600082601f83011261356157600080fd5b8135613571848260208601613494565b91505092915050565b60008135905061358981614b94565b92915050565b6000602082840312156135a157600080fd5b60006135af848285016134d2565b91505092915050565b600080604083850312156135cb57600080fd5b60006135d9858286016134d2565b92505060206135ea858286016134d2565b9150509250929050565b60008060006060848603121561360957600080fd5b6000613617868287016134d2565b9350506020613628868287016134d2565b92505060406136398682870161357a565b9150509250925092565b6000806000806080858703121561365957600080fd5b6000613667878288016134d2565b9450506020613678878288016134d2565b93505060406136898782880161357a565b925050606085013567ffffffffffffffff8111156136a657600080fd5b6136b287828801613526565b91505092959194509250565b600080604083850312156136d157600080fd5b60006136df858286016134d2565b92505060206136f0858286016134e7565b9150509250929050565b6000806040838503121561370d57600080fd5b600061371b858286016134d2565b925050602061372c8582860161357a565b9150509250929050565b60006020828403121561374857600080fd5b6000613756848285016134fc565b91505092915050565b60006020828403121561377157600080fd5b600061377f84828501613511565b91505092915050565b60006020828403121561379a57600080fd5b600082013567ffffffffffffffff8111156137b457600080fd5b6137c084828501613550565b91505092915050565b600080604083850312156137dc57600080fd5b600083013567ffffffffffffffff8111156137f657600080fd5b61380285828601613550565b925050602083013567ffffffffffffffff81111561381f57600080fd5b61382b85828601613550565b9150509250929050565b6000806000806080858703121561384b57600080fd5b600085013567ffffffffffffffff81111561386557600080fd5b61387187828801613550565b945050602085013567ffffffffffffffff81111561388e57600080fd5b61389a87828801613550565b935050604085013567ffffffffffffffff8111156138b757600080fd5b6138c387828801613550565b92505060606138d48782880161357a565b91505092959194509250565b6000602082840312156138f257600080fd5b60006139008482850161357a565b91505092915050565b6000806040838503121561391c57600080fd5b600061392a8582860161357a565b925050602061393b8582860161357a565b9150509250929050565b60006139518383613d15565b60208301905092915050565b61396681614384565b82525050565b60006139778261425d565b613981818561428b565b935061398c8361424d565b8060005b838110156139bd5781516139a48882613945565b97506139af8361427e565b925050600181019050613990565b5085935050505092915050565b6139d381614396565b82525050565b60006139e482614268565b6139ee818561429c565b93506139fe818560208601614407565b613a07816145d3565b840191505092915050565b6000613a1d82614273565b613a2781856142ad565b9350613a37818560208601614407565b613a40816145d3565b840191505092915050565b6000613a5682614273565b613a6081856142be565b9350613a70818560208601614407565b80840191505092915050565b6000613a89602b836142ad565b9150613a94826145e4565b604082019050919050565b6000613aac6032836142ad565b9150613ab782614633565b604082019050919050565b6000613acf6025836142ad565b9150613ada82614682565b604082019050919050565b6000613af2601c836142ad565b9150613afd826146d1565b602082019050919050565b6000613b156024836142ad565b9150613b20826146fa565b604082019050919050565b6000613b386019836142ad565b9150613b4382614749565b602082019050919050565b6000613b5b602c836142ad565b9150613b6682614772565b604082019050919050565b6000613b7e6038836142ad565b9150613b89826147c1565b604082019050919050565b6000613ba1602a836142ad565b9150613bac82614810565b604082019050919050565b6000613bc46029836142ad565b9150613bcf8261485f565b604082019050919050565b6000613be7602e836142ad565b9150613bf2826148ae565b604082019050919050565b6000613c0a6020836142ad565b9150613c15826148fd565b602082019050919050565b6000613c2d602c836142ad565b9150613c3882614926565b604082019050919050565b6000613c50602e836142ad565b9150613c5b82614975565b604082019050919050565b6000613c73602f836142ad565b9150613c7e826149c4565b604082019050919050565b6000613c966021836142ad565b9150613ca182614a13565b604082019050919050565b6000613cb96031836142ad565b9150613cc482614a62565b604082019050919050565b6000613cdc602c836142ad565b9150613ce782614ab1565b604082019050919050565b6000613cff602b836142ad565b9150613d0a82614b00565b604082019050919050565b613d1e816143ee565b82525050565b613d2d816143ee565b82525050565b6000613d3f8284613a4b565b915081905092915050565b6000613d568285613a4b565b9150613d628284613a4b565b91508190509392505050565b6000602082019050613d83600083018461395d565b92915050565b6000608082019050613d9e600083018761395d565b613dab602083018661395d565b613db86040830185613d24565b8181036060830152613dca81846139d9565b905095945050505050565b60006020820190508181036000830152613def818461396c565b905092915050565b6000602082019050613e0c60008301846139ca565b92915050565b60006020820190508181036000830152613e2c8184613a12565b905092915050565b600060e0820190508181036000830152613e4e818a613a12565b90508181036020830152613e628189613a12565b90508181036040830152613e768188613a12565b9050613e85606083018761395d565b613e92608083018661395d565b613e9f60a0830185613d24565b613eac60c08301846139ca565b98975050505050505050565b6000610100820190508181036000830152613ed3818b613a12565b90508181036020830152613ee7818a613a12565b90508181036040830152613efb8189613a12565b9050613f0a6060830188613d24565b613f17608083018761395d565b613f2460a083018661395d565b613f3160c0830185613d24565b613f3e60e08301846139ca565b9998505050505050505050565b60006020820190508181036000830152613f6481613a7c565b9050919050565b60006020820190508181036000830152613f8481613a9f565b9050919050565b60006020820190508181036000830152613fa481613ac2565b9050919050565b60006020820190508181036000830152613fc481613ae5565b9050919050565b60006020820190508181036000830152613fe481613b08565b9050919050565b6000602082019050818103600083015261400481613b2b565b9050919050565b6000602082019050818103600083015261402481613b4e565b9050919050565b6000602082019050818103600083015261404481613b71565b9050919050565b6000602082019050818103600083015261406481613b94565b9050919050565b6000602082019050818103600083015261408481613bb7565b9050919050565b600060208201905081810360008301526140a481613bda565b9050919050565b600060208201905081810360008301526140c481613bfd565b9050919050565b600060208201905081810360008301526140e481613c20565b9050919050565b6000602082019050818103600083015261410481613c43565b9050919050565b6000602082019050818103600083015261412481613c66565b9050919050565b6000602082019050818103600083015261414481613c89565b9050919050565b6000602082019050818103600083015261416481613cac565b9050919050565b6000602082019050818103600083015261418481613ccf565b9050919050565b600060208201905081810360008301526141a481613cf2565b9050919050565b60006020820190506141c06000830184613d24565b92915050565b60006141d06141e1565b90506141dc828261446c565b919050565b6000604051905090565b600067ffffffffffffffff821115614206576142056145a4565b5b61420f826145d3565b9050602081019050919050565b600067ffffffffffffffff821115614237576142366145a4565b5b614240826145d3565b9050602081019050919050565b6000819050602082019050919050565b600081519050919050565b600081519050919050565b600081519050919050565b6000602082019050919050565b600082825260208201905092915050565b600082825260208201905092915050565b600082825260208201905092915050565b600081905092915050565b60006142d4826143ee565b91506142df836143ee565b9250827fffffffffffffffffffffffffffffffffffffffffffffffffffffffffffffffff0382111561431457614313614517565b5b828201905092915050565b600061432a826143ee565b9150614335836143ee565b92508261434557614344614546565b5b828204905092915050565b600061435b826143ee565b9150614366836143ee565b92508282101561437957614378614517565b5b828203905092915050565b600061438f826143ce565b9050919050565b60008115159050919050565b60007fffffffff0000000000000000000000000000000000000000000000000000000082169050919050565b600073ffffffffffffffffffffffffffffffffffffffff82169050919050565b6000819050919050565b82818337600083830152505050565b60005b8381101561442557808201518184015260208101905061440a565b83811115614434576000848401525b50505050565b6000600282049050600182168061445257607f821691505b6020821081141561446657614465614575565b5b50919050565b614475826145d3565b810181811067ffffffffffffffff82111715614494576144936145a4565b5b80604052505050565b60006144a8826143ee565b91507fffffffffffffffffffffffffffffffffffffffffffffffffffffffffffffffff8214156144db576144da614517565b5b600182019050919050565b60006144f1826143ee565b91506144fc836143ee565b92508261450c5761450b614546565b5b828206905092915050565b7f4e487b7100000000000000000000000000000000000000000000000000000000600052601160045260246000fd5b7f4e487b7100000000000000000000000000000000000000000000000000000000600052601260045260246000fd5b7f4e487b7100000000000000000000000000000000000000000000000000000000600052602260045260246000fd5b7f4e487b7100000000000000000000000000000000000000000000000000000000600052604160045260246000fd5b6000601f19601f8301169050919050565b7f455243373231456e756d657261626c653a206f776e657220696e646578206f7560008201527f74206f6620626f756e6473000000000000000000000000000000000000000000602082015250565b7f4552433732313a207472616e7366657220746f206e6f6e20455243373231526560008201527f63656976657220696d706c656d656e7465720000000000000000000000000000602082015250565b7f4552433732313a207472616e736665722066726f6d20696e636f72726563742060008201527f6f776e6572000000000000000000000000000000000000000000000000000000602082015250565b7f4552433732313a20746f6b656e20616c7265616479206d696e74656400000000600082015250565b7f4552433732313a207472616e7366657220746f20746865207a65726f2061646460008201527f7265737300000000000000000000000000000000000000000000000000000000602082015250565b7f4552433732313a20617070726f766520746f2063616c6c657200000000000000600082015250565b7f4552433732313a206f70657261746f7220717565727920666f72206e6f6e657860008201527f697374656e7420746f6b656e0000000000000000000000000000000000000000602082015250565b7f4552433732313a20617070726f76652063616c6c6572206973206e6f74206f7760008201527f6e6572206e6f7220617070726f76656420666f7220616c6c0000000000000000602082015250565b7f4552433732313a2062616c616e636520717565727920666f7220746865207a6560008201527f726f206164647265737300000000000000000000000000000000000000000000602082015250565b7f4552433732313a206f776e657220717565727920666f72206e6f6e657869737460008201527f656e7420746f6b656e0000000000000000000000000000000000000000000000602082015250565b7f496e697469616c697a61626c653a20636f6e747261637420697320616c72656160008201527f647920696e697469616c697a6564000000000000000000000000000000000000602082015250565b7f4552433732313a206d696e7420746f20746865207a65726f2061646472657373600082015250565b7f4552433732313a20617070726f76656420717565727920666f72206e6f6e657860008201527f697374656e7420746f6b656e0000000000000000000000000000000000000000602082015250565b7f436f6e747261637420696e7374616e63652068617320616c726561647920626560008201527f656e20696e697469616c697a6564000000000000000000000000000000000000602082015250565b7f4552433732314d657461646174613a2055524920717565727920666f72206e6f60008201527f6e6578697374656e7420746f6b656e0000000000000000000000000000000000602082015250565b7f4552433732313a20617070726f76616c20746f2063757272656e74206f776e6560008201527f7200000000000000000000000000000000000000000000000000000000000000602082015250565b7f4552433732313a207472616e736665722063616c6c6572206973206e6f74206f60008201527f776e6572206e6f7220617070726f766564000000000000000000000000000000602082015250565b7f455243373231456e756d657261626c653a20676c6f62616c20696e646578206f60008201527f7574206f6620626f756e64730000000000000000000000000000000000000000602082015250565b7f496e697469616c697a61626c653a20636f6e7472616374206973206e6f74206960008201527f6e697469616c697a696e67000000000000000000000000000000000000000000602082015250565b614b5881614384565b8114614b6357600080fd5b50565b614b6f81614396565b8114614b7a57600080fd5b50565b614b86816143a2565b8114614b9157600080fd5b50565b614b9d816143ee565b8114614ba857600080fd5b5056fea2646970667358221220c9f3921aa2c15bf43b9bf752c64ad9746d3a557de1fccb222428e990fce0e20764736f6c63430008020033",
  "linkReferences": {},
  "deployedLinkReferences": {}
}