{
  "_format": "hh-sol-artifact-1",
  "contractName": "CollectionV0",
  "sourceName": "contracts/Collection.sol",
  "abi": [
    {
      "anonymous": false,
      "inputs": [
        {
          "indexed": true,
          "internalType": "address",
          "name": "owner",
          "type": "address"
        },
        {
          "indexed": true,
          "internalType": "address",
          "name": "approved",
          "type": "address"
        },
        {
          "indexed": true,
          "internalType": "uint256",
          "name": "tokenId",
          "type": "uint256"
        }
      ],
      "name": "Approval",
      "type": "event"
    },
    {
      "anonymous": false,
      "inputs": [
        {
          "indexed": true,
          "internalType": "address",
          "name": "owner",
          "type": "address"
        },
        {
          "indexed": true,
          "internalType": "address",
          "name": "operator",
          "type": "address"
        },
        {
          "indexed": false,
          "internalType": "bool",
          "name": "approved",
          "type": "bool"
        }
      ],
      "name": "ApprovalForAll",
      "type": "event"
    },
    {
      "anonymous": false,
      "inputs": [
        {
          "indexed": true,
          "internalType": "address",
          "name": "from",
          "type": "address"
        },
        {
          "indexed": true,
          "internalType": "address",
          "name": "to",
          "type": "address"
        },
        {
          "indexed": true,
          "internalType": "uint256",
          "name": "tokenId",
          "type": "uint256"
        }
      ],
      "name": "Transfer",
      "type": "event"
    },
    {
      "inputs": [
        {
          "internalType": "uint256",
          "name": "",
          "type": "uint256"
        }
      ],
      "name": "allNFTs",
      "outputs": [
        {
          "internalType": "string",
          "name": "name",
          "type": "string"
        },
        {
          "internalType": "string",
          "name": "uri",
          "type": "string"
        },
        {
          "internalType": "string",
          "name": "description",
          "type": "string"
        },
        {
          "internalType": "uint256",
          "name": "tokenId",
          "type": "uint256"
        },
        {
          "internalType": "address",
          "name": "creator",
          "type": "address"
        },
        {
          "internalType": "address",
          "name": "currentOwner",
          "type": "address"
        },
        {
          "internalType": "uint256",
          "name": "price",
          "type": "uint256"
        },
        {
          "internalType": "bool",
          "name": "forSale",
          "type": "bool"
        }
      ],
      "stateMutability": "view",
      "type": "function"
    },
    {
      "inputs": [
        {
          "internalType": "address",
          "name": "to",
          "type": "address"
        },
        {
          "internalType": "uint256",
          "name": "tokenId",
          "type": "uint256"
        }
      ],
      "name": "approve",
      "outputs": [],
      "stateMutability": "nonpayable",
      "type": "function"
    },
    {
      "inputs": [
        {
          "internalType": "address",
          "name": "owner",
          "type": "address"
        }
      ],
      "name": "balanceOf",
      "outputs": [
        {
          "internalType": "uint256",
          "name": "",
          "type": "uint256"
        }
      ],
      "stateMutability": "view",
      "type": "function"
    },
    {
      "inputs": [
        {
          "internalType": "uint256",
          "name": "tokenId",
          "type": "uint256"
        }
      ],
      "name": "burn",
      "outputs": [],
      "stateMutability": "nonpayable",
      "type": "function"
    },
    {
      "inputs": [
        {
          "internalType": "uint256",
          "name": "tokenId",
          "type": "uint256"
        }
      ],
      "name": "buy",
      "outputs": [],
      "stateMutability": "payable",
      "type": "function"
    },
    {
      "inputs": [
        {
          "internalType": "uint256",
          "name": "tokenId",
          "type": "uint256"
        }
      ],
      "name": "getApproved",
      "outputs": [
        {
          "internalType": "address",
          "name": "",
          "type": "address"
        }
      ],
      "stateMutability": "view",
      "type": "function"
    },
    {
      "inputs": [
        {
          "internalType": "uint256",
          "name": "tokenId",
          "type": "uint256"
        }
      ],
      "name": "getNFTInfo",
      "outputs": [
        {
          "internalType": "string",
          "name": "",
          "type": "string"
        },
        {
          "internalType": "string",
          "name": "",
          "type": "string"
        },
        {
          "internalType": "string",
          "name": "",
          "type": "string"
        },
        {
          "internalType": "address",
          "name": "",
          "type": "address"
        },
        {
          "internalType": "address",
          "name": "",
          "type": "address"
        },
        {
          "internalType": "uint256",
          "name": "",
          "type": "uint256"
        },
        {
          "internalType": "bool",
          "name": "",
          "type": "bool"
        }
      ],
      "stateMutability": "view",
      "type": "function"
    },
    {
      "inputs": [],
      "name": "getOwnedNFTs",
      "outputs": [
        {
          "internalType": "uint256[]",
          "name": "",
          "type": "uint256[]"
        }
      ],
      "stateMutability": "view",
      "type": "function"
    },
    {
      "inputs": [
        {
          "internalType": "string",
          "name": "name",
          "type": "string"
        },
        {
          "internalType": "string",
          "name": "symbol",
          "type": "string"
        }
      ],
      "name": "initialize",
      "outputs": [],
      "stateMutability": "nonpayable",
      "type": "function"
    },
    {
      "inputs": [
        {
          "internalType": "address",
          "name": "owner",
          "type": "address"
        },
        {
          "internalType": "address",
          "name": "operator",
          "type": "address"
        }
      ],
      "name": "isApprovedForAll",
      "outputs": [
        {
          "internalType": "bool",
          "name": "",
          "type": "bool"
        }
      ],
      "stateMutability": "view",
      "type": "function"
    },
    {
      "inputs": [
        {
          "internalType": "string",
          "name": "name",
          "type": "string"
        },
        {
          "internalType": "string",
          "name": "uri",
          "type": "string"
        },
        {
          "internalType": "string",
          "name": "desc",
          "type": "string"
        },
        {
          "internalType": "uint256",
          "name": "price",
          "type": "uint256"
        }
      ],
      "name": "mint",
      "outputs": [],
      "stateMutability": "nonpayable",
      "type": "function"
    },
    {
      "inputs": [],
      "name": "name",
      "outputs": [
        {
          "internalType": "string",
          "name": "",
          "type": "string"
        }
      ],
      "stateMutability": "view",
      "type": "function"
    },
    {
      "inputs": [
        {
          "internalType": "uint256",
          "name": "tokenId",
          "type": "uint256"
        }
      ],
      "name": "ownerOf",
      "outputs": [
        {
          "internalType": "address",
          "name": "",
          "type": "address"
        }
      ],
      "stateMutability": "view",
      "type": "function"
    },
    {
      "inputs": [
        {
          "internalType": "address",
          "name": "from",
          "type": "address"
        },
        {
          "internalType": "address",
          "name": "to",
          "type": "address"
        },
        {
          "internalType": "uint256",
          "name": "tokenId",
          "type": "uint256"
        }
      ],
      "name": "safeTransferFrom",
      "outputs": [],
      "stateMutability": "nonpayable",
      "type": "function"
    },
    {
      "inputs": [
        {
          "internalType": "address",
          "name": "from",
          "type": "address"
        },
        {
          "internalType": "address",
          "name": "to",
          "type": "address"
        },
        {
          "internalType": "uint256",
          "name": "tokenId",
          "type": "uint256"
        },
        {
          "internalType": "bytes",
          "name": "_data",
          "type": "bytes"
        }
      ],
      "name": "safeTransferFrom",
      "outputs": [],
      "stateMutability": "nonpayable",
      "type": "function"
    },
    {
      "inputs": [
        {
          "internalType": "address",
          "name": "operator",
          "type": "address"
        },
        {
          "internalType": "bool",
          "name": "approved",
          "type": "bool"
        }
      ],
      "name": "setApprovalForAll",
      "outputs": [],
      "stateMutability": "nonpayable",
      "type": "function"
    },
    {
      "inputs": [
        {
          "internalType": "uint256",
          "name": "tokenId",
          "type": "uint256"
        },
        {
          "internalType": "uint256",
          "name": "newPrice",
          "type": "uint256"
        }
      ],
      "name": "setNewPrice",
      "outputs": [],
      "stateMutability": "nonpayable",
      "type": "function"
    },
    {
      "inputs": [
        {
          "internalType": "bytes4",
          "name": "interfaceId",
          "type": "bytes4"
        }
      ],
      "name": "supportsInterface",
      "outputs": [
        {
          "internalType": "bool",
          "name": "",
          "type": "bool"
        }
      ],
      "stateMutability": "view",
      "type": "function"
    },
    {
      "inputs": [
        {
          "internalType": "uint256",
          "name": "tokenId",
          "type": "uint256"
        }
      ],
      "name": "switchForSale",
      "outputs": [],
      "stateMutability": "nonpayable",
      "type": "function"
    },
    {
      "inputs": [],
      "name": "symbol",
      "outputs": [
        {
          "internalType": "string",
          "name": "",
          "type": "string"
        }
      ],
      "stateMutability": "view",
      "type": "function"
    },
    {
      "inputs": [
        {
          "internalType": "uint256",
          "name": "index",
          "type": "uint256"
        }
      ],
      "name": "tokenByIndex",
      "outputs": [
        {
          "internalType": "uint256",
          "name": "",
          "type": "uint256"
        }
      ],
      "stateMutability": "view",
      "type": "function"
    },
    {
      "inputs": [
        {
          "internalType": "address",
          "name": "owner",
          "type": "address"
        },
        {
          "internalType": "uint256",
          "name": "index",
          "type": "uint256"
        }
      ],
      "name": "tokenOfOwnerByIndex",
      "outputs": [
        {
          "internalType": "uint256",
          "name": "",
          "type": "uint256"
        }
      ],
      "stateMutability": "view",
      "type": "function"
    },
    {
      "inputs": [
        {
          "internalType": "uint256",
          "name": "tokenId",
          "type": "uint256"
        }
      ],
      "name": "tokenURI",
      "outputs": [
        {
          "internalType": "string",
          "name": "",
          "type": "string"
        }
      ],
      "stateMutability": "view",
      "type": "function"
    },
    {
      "inputs": [],
      "name": "totalSupply",
      "outputs": [
        {
          "internalType": "uint256",
          "name": "",
          "type": "uint256"
        }
      ],
      "stateMutability": "view",
      "type": "function"
    },
    {
      "inputs": [
        {
          "internalType": "address",
          "name": "from",
          "type": "address"
        },
        {
          "internalType": "address",
          "name": "to",
          "type": "address"
        },
        {
          "internalType": "uint256",
          "name": "tokenId",
          "type": "uint256"
        }
      ],
      "name": "transferFrom",
      "outputs": [],
      "stateMutability": "nonpayable",
      "type": "function"
    },
    {
      "inputs": [
        {
          "internalType": "string",
          "name": "",
          "type": "string"
        }
      ],
      "name": "uriExists",
      "outputs": [
        {
          "internalType": "bool",
          "name": "",
          "type": "bool"
        }
      ],
      "stateMutability": "view",
      "type": "function"
    }
  ],
  "bytecode": "0x608060405234801561001057600080fd5b50614bcd806100206000396000f3fe6080604052600436106101815760003560e01c80636352211e116100d1578063b88d4fde1161008a578063d188929f11610064578063d188929f146105cf578063d96a094a14610612578063e23a60fe1461062e578063e985e9c51461065757610181565b8063b88d4fde14610525578063bf162d671461054e578063c87b56dd1461059257610181565b80636352211e146103f157806365e10f191461042e57806370a082311461045757806395d89b4114610494578063a22cb465146104bf578063a4a023b1146104e857610181565b80632f745c591161013e57806342966c681161011857806342966c68146103375780634c0eb7d9146103605780634cd88b761461038b5780634f6ccce7146103b457610181565b80632f745c59146102a857806331b6475c146102e557806342842e0e1461030e57610181565b806301ffc9a71461018657806306fdde03146101c3578063081812fc146101ee578063095ea7b31461022b57806318160ddd1461025457806323b872dd1461027f575b600080fd5b34801561019257600080fd5b506101ad60048036038101906101a89190613722565b610694565b6040516101ba9190613de3565b60405180910390f35b3480156101cf57600080fd5b506101d861070e565b6040516101e59190613dfe565b60405180910390f35b3480156101fa57600080fd5b50610215600480360381019061021091906138cc565b6107a0565b6040516102229190613d5a565b60405180910390f35b34801561023757600080fd5b50610252600480360381019061024d91906136e6565b610825565b005b34801561026057600080fd5b5061026961093d565b6040516102769190614197565b60405180910390f35b34801561028b57600080fd5b506102a660048036038101906102a191906135e0565b61094a565b005b3480156102b457600080fd5b506102cf60048036038101906102ca91906136e6565b6109aa565b6040516102dc9190614197565b60405180910390f35b3480156102f157600080fd5b5061030c60048036038101906103079190613821565b610a4f565b005b34801561031a57600080fd5b50610335600480360381019061033091906135e0565b610c82565b005b34801561034357600080fd5b5061035e600480360381019061035991906138cc565b610ca2565b005b34801561036c57600080fd5b50610375610d5c565b6040516103829190613dc1565b60405180910390f35b34801561039757600080fd5b506103b260048036038101906103ad91906137b5565b610e56565b005b3480156103c057600080fd5b506103db60048036038101906103d691906138cc565b610fb1565b6040516103e89190614197565b60405180910390f35b3480156103fd57600080fd5b50610418600480360381019061041391906138cc565b611048565b6040516104259190613d5a565b60405180910390f35b34801561043a57600080fd5b50610455600480360381019061045091906138cc565b6110fa565b005b34801561046357600080fd5b5061047e6004803603810190610479919061357b565b611292565b60405161048b9190614197565b60405180910390f35b3480156104a057600080fd5b506104a961134a565b6040516104b69190613dfe565b60405180910390f35b3480156104cb57600080fd5b506104e660048036038101906104e191906136aa565b6113dc565b005b3480156104f457600080fd5b5061050f600480360381019061050a9190613774565b6113f2565b60405161051c9190613de3565b60405180910390f35b34801561053157600080fd5b5061054c6004803603810190610547919061362f565b611428565b005b34801561055a57600080fd5b50610575600480360381019061057091906138cc565b61148a565b604051610589989796959493929190613ea4565b60405180910390f35b34801561059e57600080fd5b506105b960048036038101906105b491906138cc565b6116b7565b6040516105c69190613dfe565b60405180910390f35b3480156105db57600080fd5b506105f660048036038101906105f191906138cc565b61175e565b6040516106099796959493929190613e20565b60405180910390f35b61062c600480360381019061062791906138cc565b6117d9565b005b34801561063a57600080fd5b50610655600480360381019061065091906138f5565b611a51565b005b34801561066357600080fd5b5061067e600480360381019061067991906135a4565b611bdf565b60405161068b9190613de3565b60405180910390f35b60007f780e9d63000000000000000000000000000000000000000000000000000000007bffffffffffffffffffffffffffffffffffffffffffffffffffffffff1916827bffffffffffffffffffffffffffffffffffffffffffffffffffffffff19161480610707575061070682611c73565b5b9050919050565b60606065805461071d90614426565b80601f016020809104026020016040519081016040528092919081815260200182805461074990614426565b80156107965780601f1061076b57610100808354040283529160200191610796565b820191906000526020600020905b81548152906001019060200180831161077957829003601f168201915b5050505050905090565b60006107ab82611d55565b6107ea576040517f08c379a00000000000000000000000000000000000000000000000000000000081526004016107e1906140b7565b60405180910390fd5b6069600083815260200190815260200160002060009054906101000a900473ffffffffffffffffffffffffffffffffffffffff169050919050565b600061083082611048565b90508073ffffffffffffffffffffffffffffffffffffffff168373ffffffffffffffffffffffffffffffffffffffff1614156108a1576040517f08c379a000000000000000000000000000000000000000000000000000000000815260040161089890614117565b60405180910390fd5b8073ffffffffffffffffffffffffffffffffffffffff166108c0611dc1565b73ffffffffffffffffffffffffffffffffffffffff1614806108ef57506108ee816108e9611dc1565b611bdf565b5b61092e576040517f08c379a000000000000000000000000000000000000000000000000000000000815260040161092590614017565b60405180910390fd5b6109388383611dc9565b505050565b6000609980549050905090565b61095b610955611dc1565b82611e82565b61099a576040517f08c379a000000000000000000000000000000000000000000000000000000000815260040161099190614137565b60405180910390fd5b6109a5838383611f60565b505050565b60006109b583611292565b82106109f6576040517f08c379a00000000000000000000000000000000000000000000000000000000081526004016109ed90613f37565b60405180910390fd5b609760008473ffffffffffffffffffffffffffffffffffffffff1673ffffffffffffffffffffffffffffffffffffffff168152602001908152602001600020600083815260200190815260200160002054905092915050565b60cb83604051610a5f9190613d1f565b908152602001604051809103902060009054906101000a900460ff1615610a8557600080fd5b60c96000815480929190610a9890614489565b9190505550610aa93360c9546121c7565b60405180610100016040528085815260200184815260200183815260200160c95481526020013373ffffffffffffffffffffffffffffffffffffffff1681526020013373ffffffffffffffffffffffffffffffffffffffff1681526020018281526020016001151581525060ca600060c95481526020019081526020016000206000820151816000019080519060200190610b4592919061332c565b506020820151816001019080519060200190610b6292919061332c565b506040820151816002019080519060200190610b7f92919061332c565b506060820151816003015560808201518160040160006101000a81548173ffffffffffffffffffffffffffffffffffffffff021916908373ffffffffffffffffffffffffffffffffffffffff16021790555060a08201518160050160006101000a81548173ffffffffffffffffffffffffffffffffffffffff021916908373ffffffffffffffffffffffffffffffffffffffff16021790555060c0820151816006015560e08201518160070160006101000a81548160ff021916908315150217905550905050600160cb84604051610c579190613d1f565b908152602001604051809103902060006101000a81548160ff02191690831515021790555050505050565b610c9d83838360405180602001604052806000815250611428565b505050565b80610cac81611048565b73ffffffffffffffffffffffffffffffffffffffff163373ffffffffffffffffffffffffffffffffffffffff1614610ce357600080fd5b610cec82611d55565b610cf557600080fd5b610cfe826121e5565b6000610d0983612302565b60e00190151590811515815250506000610d2283612302565b60a0019073ffffffffffffffffffffffffffffffffffffffff16908173ffffffffffffffffffffffffffffffffffffffff16815250505050565b60606000610d6933611292565b67ffffffffffffffff811115610da8577f4e487b7100000000000000000000000000000000000000000000000000000000600052604160045260246000fd5b604051908082528060200260200182016040528015610dd65781602001602082028036833780820191505090505b50905060005b610de533611292565b811015610e4e57610df633826109aa565b828281518110610e2f577f4e487b7100000000000000000000000000000000000000000000000000000000600052603260045260246000fd5b6020026020010181815250508080610e4690614489565b915050610ddc565b508091505090565b600060019054906101000a900460ff16610e7e5760008054906101000a900460ff1615610e87565b610e866125c1565b5b610ec6576040517f08c379a0000000000000000000000000000000000000000000000000000000008152600401610ebd90614077565b60405180910390fd5b60008060019054906101000a900460ff161590508015610f16576001600060016101000a81548160ff02191690831515021790555060016000806101000a81548160ff0219169083151502179055505b60cc60009054906101000a900460ff1615610f66576040517f08c379a0000000000000000000000000000000000000000000000000000000008152600401610f5d906140d7565b60405180910390fd5b610f7083836125d2565b600160cc60006101000a81548160ff0219169083151502179055508015610fac5760008060016101000a81548160ff0219169083151502179055505b505050565b6000610fbb61093d565b8210610ffc576040517f08c379a0000000000000000000000000000000000000000000000000000000008152600401610ff390614157565b60405180910390fd5b60998281548110611036577f4e487b7100000000000000000000000000000000000000000000000000000000600052603260045260246000fd5b90600052602060002001549050919050565b6000806067600084815260200190815260200160002060009054906101000a900473ffffffffffffffffffffffffffffffffffffffff169050600073ffffffffffffffffffffffffffffffffffffffff168173ffffffffffffffffffffffffffffffffffffffff1614156110f1576040517f08c379a00000000000000000000000000000000000000000000000000000000081526004016110e890614057565b60405180910390fd5b80915050919050565b8061110481611048565b73ffffffffffffffffffffffffffffffffffffffff163373ffffffffffffffffffffffffffffffffffffffff161461113b57600080fd5b600061114683612302565b90508060e00151158160e00190151590811515815250508060ca6000858152602001908152602001600020600082015181600001908051906020019061118d92919061332c565b5060208201518160010190805190602001906111aa92919061332c565b5060408201518160020190805190602001906111c792919061332c565b506060820151816003015560808201518160040160006101000a81548173ffffffffffffffffffffffffffffffffffffffff021916908373ffffffffffffffffffffffffffffffffffffffff16021790555060a08201518160050160006101000a81548173ffffffffffffffffffffffffffffffffffffffff021916908373ffffffffffffffffffffffffffffffffffffffff16021790555060c0820151816006015560e08201518160070160006101000a81548160ff021916908315150217905550905050505050565b60008073ffffffffffffffffffffffffffffffffffffffff168273ffffffffffffffffffffffffffffffffffffffff161415611303576040517f08c379a00000000000000000000000000000000000000000000000000000000081526004016112fa90614037565b60405180910390fd5b606860008373ffffffffffffffffffffffffffffffffffffffff1673ffffffffffffffffffffffffffffffffffffffff168152602001908152602001600020549050919050565b60606066805461135990614426565b80601f016020809104026020016040519081016040528092919081815260200182805461138590614426565b80156113d25780601f106113a7576101008083540402835291602001916113d2565b820191906000526020600020905b8154815290600101906020018083116113b557829003601f168201915b5050505050905090565b6113ee6113e7611dc1565b838361262f565b5050565b60cb818051602081018201805184825260208301602085012081835280955050505050506000915054906101000a900460ff1681565b611439611433611dc1565b83611e82565b611478576040517f08c379a000000000000000000000000000000000000000000000000000000000815260040161146f90614137565b60405180910390fd5b6114848484848461279c565b50505050565b60ca6020528060005260406000206000915090508060000180546114ad90614426565b80601f01602080910402602001604051908101604052809291908181526020018280546114d990614426565b80156115265780601f106114fb57610100808354040283529160200191611526565b820191906000526020600020905b81548152906001019060200180831161150957829003601f168201915b50505050509080600101805461153b90614426565b80601f016020809104026020016040519081016040528092919081815260200182805461156790614426565b80156115b45780601f10611589576101008083540402835291602001916115b4565b820191906000526020600020905b81548152906001019060200180831161159757829003601f168201915b5050505050908060020180546115c990614426565b80601f01602080910402602001604051908101604052809291908181526020018280546115f590614426565b80156116425780601f1061161757610100808354040283529160200191611642565b820191906000526020600020905b81548152906001019060200180831161162557829003601f168201915b5050505050908060030154908060040160009054906101000a900473ffffffffffffffffffffffffffffffffffffffff16908060050160009054906101000a900473ffffffffffffffffffffffffffffffffffffffff16908060060154908060070160009054906101000a900460ff16905088565b60606116c282611d55565b611701576040517f08c379a00000000000000000000000000000000000000000000000000000000081526004016116f8906140f7565b60405180910390fd5b600061170b6127f8565b9050600081511161172b5760405180602001604052806000815250611756565b806117358461280f565b604051602001611746929190613d36565b6040516020818303038152906040525b915050919050565b606080606060008060008061177288612302565b6000015161177f89612302565b6020015161178c8a612302565b604001516117998b612302565b608001516117a68c611048565b6117af8d612302565b60c001516117bc8e612302565b60e001519650965096509650965096509650919395979092949650565b6117e281611d55565b6117eb57600080fd5b3373ffffffffffffffffffffffffffffffffffffffff1661180b82611048565b73ffffffffffffffffffffffffffffffffffffffff16141561182c57600080fd5b61183581612302565b60e0015161184257600080fd5b61184b81612302565b60c0015134101561185b57600080fd5b61186e61186782611048565b3383611f60565b61187781611048565b73ffffffffffffffffffffffffffffffffffffffff166108fc349081150290604051600060405180830381858888f193505050501580156118bc573d6000803e3d6000fd5b50336118c782612302565b60a0019073ffffffffffffffffffffffffffffffffffffffff16908173ffffffffffffffffffffffffffffffffffffffff1681525050600061190882612302565b60e001901515908115158152505061191f81612302565b60ca6000838152602001908152602001600020600082015181600001908051906020019061194e92919061332c565b50602082015181600101908051906020019061196b92919061332c565b50604082015181600201908051906020019061198892919061332c565b506060820151816003015560808201518160040160006101000a81548173ffffffffffffffffffffffffffffffffffffffff021916908373ffffffffffffffffffffffffffffffffffffffff16021790555060a08201518160050160006101000a81548173ffffffffffffffffffffffffffffffffffffffff021916908373ffffffffffffffffffffffffffffffffffffffff16021790555060c0820151816006015560e08201518160070160006101000a81548160ff02191690831515021790555090505050565b81611a5b81611048565b73ffffffffffffffffffffffffffffffffffffffff163373ffffffffffffffffffffffffffffffffffffffff1614611a9257600080fd5b6000611a9d84612302565b9050828160c00181815250508060ca60008681526020019081526020016000206000820151816000019080519060200190611ad992919061332c565b506020820151816001019080519060200190611af692919061332c565b506040820151816002019080519060200190611b1392919061332c565b506060820151816003015560808201518160040160006101000a81548173ffffffffffffffffffffffffffffffffffffffff021916908373ffffffffffffffffffffffffffffffffffffffff16021790555060a08201518160050160006101000a81548173ffffffffffffffffffffffffffffffffffffffff021916908373ffffffffffffffffffffffffffffffffffffffff16021790555060c0820151816006015560e08201518160070160006101000a81548160ff02191690831515021790555090505050505050565b6000606a60008473ffffffffffffffffffffffffffffffffffffffff1673ffffffffffffffffffffffffffffffffffffffff16815260200190815260200160002060008373ffffffffffffffffffffffffffffffffffffffff1673ffffffffffffffffffffffffffffffffffffffff16815260200190815260200160002060009054906101000a900460ff16905092915050565b60007f80ac58cd000000000000000000000000000000000000000000000000000000007bffffffffffffffffffffffffffffffffffffffffffffffffffffffff1916827bffffffffffffffffffffffffffffffffffffffffffffffffffffffff19161480611d3e57507f5b5e139f000000000000000000000000000000000000000000000000000000007bffffffffffffffffffffffffffffffffffffffffffffffffffffffff1916827bffffffffffffffffffffffffffffffffffffffffffffffffffffffff1916145b80611d4e5750611d4d826129bc565b5b9050919050565b60008073ffffffffffffffffffffffffffffffffffffffff166067600084815260200190815260200160002060009054906101000a900473ffffffffffffffffffffffffffffffffffffffff1673ffffffffffffffffffffffffffffffffffffffff1614159050919050565b600033905090565b816069600083815260200190815260200160002060006101000a81548173ffffffffffffffffffffffffffffffffffffffff021916908373ffffffffffffffffffffffffffffffffffffffff160217905550808273ffffffffffffffffffffffffffffffffffffffff16611e3c83611048565b73ffffffffffffffffffffffffffffffffffffffff167f8c5be1e5ebec7d5bd14f71427d1e84f3dd0314c0f7b2291e5b200ac8c7c3b92560405160405180910390a45050565b6000611e8d82611d55565b611ecc576040517f08c379a0000000000000000000000000000000000000000000000000000000008152600401611ec390613ff7565b60405180910390fd5b6000611ed783611048565b90508073ffffffffffffffffffffffffffffffffffffffff168473ffffffffffffffffffffffffffffffffffffffff161480611f4657508373ffffffffffffffffffffffffffffffffffffffff16611f2e846107a0565b73ffffffffffffffffffffffffffffffffffffffff16145b80611f575750611f568185611bdf565b5b91505092915050565b8273ffffffffffffffffffffffffffffffffffffffff16611f8082611048565b73ffffffffffffffffffffffffffffffffffffffff1614611fd6576040517f08c379a0000000000000000000000000000000000000000000000000000000008152600401611fcd90613f77565b60405180910390fd5b600073ffffffffffffffffffffffffffffffffffffffff168273ffffffffffffffffffffffffffffffffffffffff161415612046576040517f08c379a000000000000000000000000000000000000000000000000000000000815260040161203d90613fb7565b60405180910390fd5b612051838383612a26565b61205c600082611dc9565b6001606860008573ffffffffffffffffffffffffffffffffffffffff1673ffffffffffffffffffffffffffffffffffffffff16815260200190815260200160002060008282546120ac919061433c565b925050819055506001606860008473ffffffffffffffffffffffffffffffffffffffff1673ffffffffffffffffffffffffffffffffffffffff168152602001908152602001600020600082825461210391906142b5565b92505081905550816067600083815260200190815260200160002060006101000a81548173ffffffffffffffffffffffffffffffffffffffff021916908373ffffffffffffffffffffffffffffffffffffffff160217905550808273ffffffffffffffffffffffffffffffffffffffff168473ffffffffffffffffffffffffffffffffffffffff167fddf252ad1be2c89b69c2b068fc378daa952ba7f163c4a11628f55a4df523b3ef60405160405180910390a46121c2838383612b3a565b505050565b6121e1828260405180602001604052806000815250612b3f565b5050565b60006121f082611048565b90506121fe81600084612a26565b612209600083611dc9565b6001606860008373ffffffffffffffffffffffffffffffffffffffff1673ffffffffffffffffffffffffffffffffffffffff1681526020019081526020016000206000828254612259919061433c565b925050819055506067600083815260200190815260200160002060006101000a81549073ffffffffffffffffffffffffffffffffffffffff021916905581600073ffffffffffffffffffffffffffffffffffffffff168273ffffffffffffffffffffffffffffffffffffffff167fddf252ad1be2c89b69c2b068fc378daa952ba7f163c4a11628f55a4df523b3ef60405160405180910390a46122fe81600084612b3a565b5050565b61230a6133b2565b60ca60008381526020019081526020016000206040518061010001604052908160008201805461233990614426565b80601f016020809104026020016040519081016040528092919081815260200182805461236590614426565b80156123b25780601f10612387576101008083540402835291602001916123b2565b820191906000526020600020905b81548152906001019060200180831161239557829003601f168201915b505050505081526020016001820180546123cb90614426565b80601f01602080910402602001604051908101604052809291908181526020018280546123f790614426565b80156124445780601f1061241957610100808354040283529160200191612444565b820191906000526020600020905b81548152906001019060200180831161242757829003601f168201915b5050505050815260200160028201805461245d90614426565b80601f016020809104026020016040519081016040528092919081815260200182805461248990614426565b80156124d65780601f106124ab576101008083540402835291602001916124d6565b820191906000526020600020905b8154815290600101906020018083116124b957829003601f168201915b50505050508152602001600382015481526020016004820160009054906101000a900473ffffffffffffffffffffffffffffffffffffffff1673ffffffffffffffffffffffffffffffffffffffff1673ffffffffffffffffffffffffffffffffffffffff1681526020016005820160009054906101000a900473ffffffffffffffffffffffffffffffffffffffff1673ffffffffffffffffffffffffffffffffffffffff1673ffffffffffffffffffffffffffffffffffffffff168152602001600682015481526020016007820160009054906101000a900460ff1615151515815250509050919050565b60006125cc30612b9a565b15905090565b600060019054906101000a900460ff16612621576040517f08c379a000000000000000000000000000000000000000000000000000000000815260040161261890614177565b60405180910390fd5b61262b8282612bbd565b5050565b8173ffffffffffffffffffffffffffffffffffffffff168373ffffffffffffffffffffffffffffffffffffffff16141561269e576040517f08c379a000000000000000000000000000000000000000000000000000000000815260040161269590613fd7565b60405180910390fd5b80606a60008573ffffffffffffffffffffffffffffffffffffffff1673ffffffffffffffffffffffffffffffffffffffff16815260200190815260200160002060008473ffffffffffffffffffffffffffffffffffffffff1673ffffffffffffffffffffffffffffffffffffffff16815260200190815260200160002060006101000a81548160ff0219169083151502179055508173ffffffffffffffffffffffffffffffffffffffff168373ffffffffffffffffffffffffffffffffffffffff167f17307eab39ab6107e8899845ad3d59bd9653f200f220920489ca2b5937696c318360405161278f9190613de3565b60405180910390a3505050565b6127a7848484611f60565b6127b384848484612c3e565b6127f2576040517f08c379a00000000000000000000000000000000000000000000000000000000081526004016127e990613f57565b60405180910390fd5b50505050565b606060405180602001604052806000815250905090565b60606000821415612857576040518060400160405280600181526020017f300000000000000000000000000000000000000000000000000000000000000081525090506129b7565b600082905060005b6000821461288957808061287290614489565b915050600a82612882919061430b565b915061285f565b60008167ffffffffffffffff8111156128cb577f4e487b7100000000000000000000000000000000000000000000000000000000600052604160045260246000fd5b6040519080825280601f01601f1916602001820160405280156128fd5781602001600182028036833780820191505090505b5090505b600085146129b057600182612916919061433c565b9150600a8561292591906144d2565b603061293191906142b5565b60f81b81838151811061296d577f4e487b7100000000000000000000000000000000000000000000000000000000600052603260045260246000fd5b60200101907effffffffffffffffffffffffffffffffffffffffffffffffffffffffffffff1916908160001a905350600a856129a9919061430b565b9450612901565b8093505050505b919050565b60007f01ffc9a7000000000000000000000000000000000000000000000000000000007bffffffffffffffffffffffffffffffffffffffffffffffffffffffff1916827bffffffffffffffffffffffffffffffffffffffffffffffffffffffff1916149050919050565b612a31838383612dd5565b600073ffffffffffffffffffffffffffffffffffffffff168373ffffffffffffffffffffffffffffffffffffffff161415612a7457612a6f81612dda565b612ab3565b8173ffffffffffffffffffffffffffffffffffffffff168373ffffffffffffffffffffffffffffffffffffffff1614612ab257612ab18382612e23565b5b5b600073ffffffffffffffffffffffffffffffffffffffff168273ffffffffffffffffffffffffffffffffffffffff161415612af657612af181612f90565b612b35565b8273ffffffffffffffffffffffffffffffffffffffff168273ffffffffffffffffffffffffffffffffffffffff1614612b3457612b3382826130d3565b5b5b505050565b505050565b612b498383613152565b612b566000848484612c3e565b612b95576040517f08c379a0000000000000000000000000000000000000000000000000000000008152600401612b8c90613f57565b60405180910390fd5b505050565b6000808273ffffffffffffffffffffffffffffffffffffffff163b119050919050565b600060019054906101000a900460ff16612c0c576040517f08c379a0000000000000000000000000000000000000000000000000000000008152600401612c0390614177565b60405180910390fd5b8160659080519060200190612c2292919061332c565b508060669080519060200190612c3992919061332c565b505050565b6000612c5f8473ffffffffffffffffffffffffffffffffffffffff16612b9a565b15612dc8578373ffffffffffffffffffffffffffffffffffffffff1663150b7a02612c88611dc1565b8786866040518563ffffffff1660e01b8152600401612caa9493929190613d75565b602060405180830381600087803b158015612cc457600080fd5b505af1925050508015612cf557506040513d601f19601f82011682018060405250810190612cf2919061374b565b60015b612d78573d8060008114612d25576040519150601f19603f3d011682016040523d82523d6000602084013e612d2a565b606091505b50600081511415612d70576040517f08c379a0000000000000000000000000000000000000000000000000000000008152600401612d6790613f57565b60405180910390fd5b805181602001fd5b63150b7a0260e01b7bffffffffffffffffffffffffffffffffffffffffffffffffffffffff1916817bffffffffffffffffffffffffffffffffffffffffffffffffffffffff191614915050612dcd565b600190505b949350505050565b505050565b609980549050609a600083815260200190815260200160002081905550609981908060018154018082558091505060019003906000526020600020016000909190919091505550565b60006001612e3084611292565b612e3a919061433c565b9050600060986000848152602001908152602001600020549050818114612f1f576000609760008673ffffffffffffffffffffffffffffffffffffffff1673ffffffffffffffffffffffffffffffffffffffff168152602001908152602001600020600084815260200190815260200160002054905080609760008773ffffffffffffffffffffffffffffffffffffffff1673ffffffffffffffffffffffffffffffffffffffff168152602001908152602001600020600084815260200190815260200160002081905550816098600083815260200190815260200160002081905550505b6098600084815260200190815260200160002060009055609760008573ffffffffffffffffffffffffffffffffffffffff1673ffffffffffffffffffffffffffffffffffffffff16815260200190815260200160002060008381526020019081526020016000206000905550505050565b60006001609980549050612fa4919061433c565b90506000609a6000848152602001908152602001600020549050600060998381548110612ffa577f4e487b7100000000000000000000000000000000000000000000000000000000600052603260045260246000fd5b906000526020600020015490508060998381548110613042577f4e487b7100000000000000000000000000000000000000000000000000000000600052603260045260246000fd5b906000526020600020018190555081609a600083815260200190815260200160002081905550609a60008581526020019081526020016000206000905560998054806130b7577f4e487b7100000000000000000000000000000000000000000000000000000000600052603160045260246000fd5b6001900381819060005260206000200160009055905550505050565b60006130de83611292565b905081609760008573ffffffffffffffffffffffffffffffffffffffff1673ffffffffffffffffffffffffffffffffffffffff168152602001908152602001600020600083815260200190815260200160002081905550806098600084815260200190815260200160002081905550505050565b600073ffffffffffffffffffffffffffffffffffffffff168273ffffffffffffffffffffffffffffffffffffffff1614156131c2576040517f08c379a00000000000000000000000000000000000000000000000000000000081526004016131b990614097565b60405180910390fd5b6131cb81611d55565b1561320b576040517f08c379a000000000000000000000000000000000000000000000000000000000815260040161320290613f97565b60405180910390fd5b61321760008383612a26565b6001606860008473ffffffffffffffffffffffffffffffffffffffff1673ffffffffffffffffffffffffffffffffffffffff168152602001908152602001600020600082825461326791906142b5565b92505081905550816067600083815260200190815260200160002060006101000a81548173ffffffffffffffffffffffffffffffffffffffff021916908373ffffffffffffffffffffffffffffffffffffffff160217905550808273ffffffffffffffffffffffffffffffffffffffff16600073ffffffffffffffffffffffffffffffffffffffff167fddf252ad1be2c89b69c2b068fc378daa952ba7f163c4a11628f55a4df523b3ef60405160405180910390a461332860008383612b3a565b5050565b82805461333890614426565b90600052602060002090601f01602090048101928261335a57600085556133a1565b82601f1061337357805160ff19168380011785556133a1565b828001600101855582156133a1579182015b828111156133a0578251825591602001919060010190613385565b5b5090506133ae9190613425565b5090565b60405180610100016040528060608152602001606081526020016060815260200160008152602001600073ffffffffffffffffffffffffffffffffffffffff168152602001600073ffffffffffffffffffffffffffffffffffffffff168152602001600081526020016000151581525090565b5b8082111561343e576000816000905550600101613426565b5090565b6000613455613450846141d7565b6141b2565b90508281526020810184848401111561346d57600080fd5b6134788482856143e4565b509392505050565b600061349361348e84614208565b6141b2565b9050828152602081018484840111156134ab57600080fd5b6134b68482856143e4565b509392505050565b6000813590506134cd81614b3b565b92915050565b6000813590506134e281614b52565b92915050565b6000813590506134f781614b69565b92915050565b60008151905061350c81614b69565b92915050565b600082601f83011261352357600080fd5b8135613533848260208601613442565b91505092915050565b600082601f83011261354d57600080fd5b813561355d848260208601613480565b91505092915050565b60008135905061357581614b80565b92915050565b60006020828403121561358d57600080fd5b600061359b848285016134be565b91505092915050565b600080604083850312156135b757600080fd5b60006135c5858286016134be565b92505060206135d6858286016134be565b9150509250929050565b6000806000606084860312156135f557600080fd5b6000613603868287016134be565b9350506020613614868287016134be565b925050604061362586828701613566565b9150509250925092565b6000806000806080858703121561364557600080fd5b6000613653878288016134be565b9450506020613664878288016134be565b935050604061367587828801613566565b925050606085013567ffffffffffffffff81111561369257600080fd5b61369e87828801613512565b91505092959194509250565b600080604083850312156136bd57600080fd5b60006136cb858286016134be565b92505060206136dc858286016134d3565b9150509250929050565b600080604083850312156136f957600080fd5b6000613707858286016134be565b925050602061371885828601613566565b9150509250929050565b60006020828403121561373457600080fd5b6000613742848285016134e8565b91505092915050565b60006020828403121561375d57600080fd5b600061376b848285016134fd565b91505092915050565b60006020828403121561378657600080fd5b600082013567ffffffffffffffff8111156137a057600080fd5b6137ac8482850161353c565b91505092915050565b600080604083850312156137c857600080fd5b600083013567ffffffffffffffff8111156137e257600080fd5b6137ee8582860161353c565b925050602083013567ffffffffffffffff81111561380b57600080fd5b6138178582860161353c565b9150509250929050565b6000806000806080858703121561383757600080fd5b600085013567ffffffffffffffff81111561385157600080fd5b61385d8782880161353c565b945050602085013567ffffffffffffffff81111561387a57600080fd5b6138868782880161353c565b935050604085013567ffffffffffffffff8111156138a357600080fd5b6138af8782880161353c565b92505060606138c087828801613566565b91505092959194509250565b6000602082840312156138de57600080fd5b60006138ec84828501613566565b91505092915050565b6000806040838503121561390857600080fd5b600061391685828601613566565b925050602061392785828601613566565b9150509250929050565b600061393d8383613d01565b60208301905092915050565b61395281614370565b82525050565b600061396382614249565b61396d8185614277565b935061397883614239565b8060005b838110156139a95781516139908882613931565b975061399b8361426a565b92505060018101905061397c565b5085935050505092915050565b6139bf81614382565b82525050565b60006139d082614254565b6139da8185614288565b93506139ea8185602086016143f3565b6139f3816145bf565b840191505092915050565b6000613a098261425f565b613a138185614299565b9350613a238185602086016143f3565b613a2c816145bf565b840191505092915050565b6000613a428261425f565b613a4c81856142aa565b9350613a5c8185602086016143f3565b80840191505092915050565b6000613a75602b83614299565b9150613a80826145d0565b604082019050919050565b6000613a98603283614299565b9150613aa38261461f565b604082019050919050565b6000613abb602583614299565b9150613ac68261466e565b604082019050919050565b6000613ade601c83614299565b9150613ae9826146bd565b602082019050919050565b6000613b01602483614299565b9150613b0c826146e6565b604082019050919050565b6000613b24601983614299565b9150613b2f82614735565b602082019050919050565b6000613b47602c83614299565b9150613b528261475e565b604082019050919050565b6000613b6a603883614299565b9150613b75826147ad565b604082019050919050565b6000613b8d602a83614299565b9150613b98826147fc565b604082019050919050565b6000613bb0602983614299565b9150613bbb8261484b565b604082019050919050565b6000613bd3602e83614299565b9150613bde8261489a565b604082019050919050565b6000613bf6602083614299565b9150613c01826148e9565b602082019050919050565b6000613c19602c83614299565b9150613c2482614912565b604082019050919050565b6000613c3c602e83614299565b9150613c4782614961565b604082019050919050565b6000613c5f602f83614299565b9150613c6a826149b0565b604082019050919050565b6000613c82602183614299565b9150613c8d826149ff565b604082019050919050565b6000613ca5603183614299565b9150613cb082614a4e565b604082019050919050565b6000613cc8602c83614299565b9150613cd382614a9d565b604082019050919050565b6000613ceb602b83614299565b9150613cf682614aec565b604082019050919050565b613d0a816143da565b82525050565b613d19816143da565b82525050565b6000613d2b8284613a37565b915081905092915050565b6000613d428285613a37565b9150613d4e8284613a37565b91508190509392505050565b6000602082019050613d6f6000830184613949565b92915050565b6000608082019050613d8a6000830187613949565b613d976020830186613949565b613da46040830185613d10565b8181036060830152613db681846139c5565b905095945050505050565b60006020820190508181036000830152613ddb8184613958565b905092915050565b6000602082019050613df860008301846139b6565b92915050565b60006020820190508181036000830152613e1881846139fe565b905092915050565b600060e0820190508181036000830152613e3a818a6139fe565b90508181036020830152613e4e81896139fe565b90508181036040830152613e6281886139fe565b9050613e716060830187613949565b613e7e6080830186613949565b613e8b60a0830185613d10565b613e9860c08301846139b6565b98975050505050505050565b6000610100820190508181036000830152613ebf818b6139fe565b90508181036020830152613ed3818a6139fe565b90508181036040830152613ee781896139fe565b9050613ef66060830188613d10565b613f036080830187613949565b613f1060a0830186613949565b613f1d60c0830185613d10565b613f2a60e08301846139b6565b9998505050505050505050565b60006020820190508181036000830152613f5081613a68565b9050919050565b60006020820190508181036000830152613f7081613a8b565b9050919050565b60006020820190508181036000830152613f9081613aae565b9050919050565b60006020820190508181036000830152613fb081613ad1565b9050919050565b60006020820190508181036000830152613fd081613af4565b9050919050565b60006020820190508181036000830152613ff081613b17565b9050919050565b6000602082019050818103600083015261401081613b3a565b9050919050565b6000602082019050818103600083015261403081613b5d565b9050919050565b6000602082019050818103600083015261405081613b80565b9050919050565b6000602082019050818103600083015261407081613ba3565b9050919050565b6000602082019050818103600083015261409081613bc6565b9050919050565b600060208201905081810360008301526140b081613be9565b9050919050565b600060208201905081810360008301526140d081613c0c565b9050919050565b600060208201905081810360008301526140f081613c2f565b9050919050565b6000602082019050818103600083015261411081613c52565b9050919050565b6000602082019050818103600083015261413081613c75565b9050919050565b6000602082019050818103600083015261415081613c98565b9050919050565b6000602082019050818103600083015261417081613cbb565b9050919050565b6000602082019050818103600083015261419081613cde565b9050919050565b60006020820190506141ac6000830184613d10565b92915050565b60006141bc6141cd565b90506141c88282614458565b919050565b6000604051905090565b600067ffffffffffffffff8211156141f2576141f1614590565b5b6141fb826145bf565b9050602081019050919050565b600067ffffffffffffffff82111561422357614222614590565b5b61422c826145bf565b9050602081019050919050565b6000819050602082019050919050565b600081519050919050565b600081519050919050565b600081519050919050565b6000602082019050919050565b600082825260208201905092915050565b600082825260208201905092915050565b600082825260208201905092915050565b600081905092915050565b60006142c0826143da565b91506142cb836143da565b9250827fffffffffffffffffffffffffffffffffffffffffffffffffffffffffffffffff03821115614300576142ff614503565b5b828201905092915050565b6000614316826143da565b9150614321836143da565b92508261433157614330614532565b5b828204905092915050565b6000614347826143da565b9150614352836143da565b92508282101561436557614364614503565b5b828203905092915050565b600061437b826143ba565b9050919050565b60008115159050919050565b60007fffffffff0000000000000000000000000000000000000000000000000000000082169050919050565b600073ffffffffffffffffffffffffffffffffffffffff82169050919050565b6000819050919050565b82818337600083830152505050565b60005b838110156144115780820151818401526020810190506143f6565b83811115614420576000848401525b50505050565b6000600282049050600182168061443e57607f821691505b6020821081141561445257614451614561565b5b50919050565b614461826145bf565b810181811067ffffffffffffffff821117156144805761447f614590565b5b80604052505050565b6000614494826143da565b91507fffffffffffffffffffffffffffffffffffffffffffffffffffffffffffffffff8214156144c7576144c6614503565b5b600182019050919050565b60006144dd826143da565b91506144e8836143da565b9250826144f8576144f7614532565b5b828206905092915050565b7f4e487b7100000000000000000000000000000000000000000000000000000000600052601160045260246000fd5b7f4e487b7100000000000000000000000000000000000000000000000000000000600052601260045260246000fd5b7f4e487b7100000000000000000000000000000000000000000000000000000000600052602260045260246000fd5b7f4e487b7100000000000000000000000000000000000000000000000000000000600052604160045260246000fd5b6000601f19601f8301169050919050565b7f455243373231456e756d657261626c653a206f776e657220696e646578206f7560008201527f74206f6620626f756e6473000000000000000000000000000000000000000000602082015250565b7f4552433732313a207472616e7366657220746f206e6f6e20455243373231526560008201527f63656976657220696d706c656d656e7465720000000000000000000000000000602082015250565b7f4552433732313a207472616e736665722066726f6d20696e636f72726563742060008201527f6f776e6572000000000000000000000000000000000000000000000000000000602082015250565b7f4552433732313a20746f6b656e20616c7265616479206d696e74656400000000600082015250565b7f4552433732313a207472616e7366657220746f20746865207a65726f2061646460008201527f7265737300000000000000000000000000000000000000000000000000000000602082015250565b7f4552433732313a20617070726f766520746f2063616c6c657200000000000000600082015250565b7f4552433732313a206f70657261746f7220717565727920666f72206e6f6e657860008201527f697374656e7420746f6b656e0000000000000000000000000000000000000000602082015250565b7f4552433732313a20617070726f76652063616c6c6572206973206e6f74206f7760008201527f6e6572206e6f7220617070726f76656420666f7220616c6c0000000000000000602082015250565b7f4552433732313a2062616c616e636520717565727920666f7220746865207a6560008201527f726f206164647265737300000000000000000000000000000000000000000000602082015250565b7f4552433732313a206f776e657220717565727920666f72206e6f6e657869737460008201527f656e7420746f6b656e0000000000000000000000000000000000000000000000602082015250565b7f496e697469616c697a61626c653a20636f6e747261637420697320616c72656160008201527f647920696e697469616c697a6564000000000000000000000000000000000000602082015250565b7f4552433732313a206d696e7420746f20746865207a65726f2061646472657373600082015250565b7f4552433732313a20617070726f76656420717565727920666f72206e6f6e657860008201527f697374656e7420746f6b656e0000000000000000000000000000000000000000602082015250565b7f436f6e747261637420696e7374616e63652068617320616c726561647920626560008201527f656e20696e697469616c697a6564000000000000000000000000000000000000602082015250565b7f4552433732314d657461646174613a2055524920717565727920666f72206e6f60008201527f6e6578697374656e7420746f6b656e0000000000000000000000000000000000602082015250565b7f4552433732313a20617070726f76616c20746f2063757272656e74206f776e6560008201527f7200000000000000000000000000000000000000000000000000000000000000602082015250565b7f4552433732313a207472616e736665722063616c6c6572206973206e6f74206f60008201527f776e6572206e6f7220617070726f766564000000000000000000000000000000602082015250565b7f455243373231456e756d657261626c653a20676c6f62616c20696e646578206f60008201527f7574206f6620626f756e64730000000000000000000000000000000000000000602082015250565b7f496e697469616c697a61626c653a20636f6e7472616374206973206e6f74206960008201527f6e697469616c697a696e67000000000000000000000000000000000000000000602082015250565b614b4481614370565b8114614b4f57600080fd5b50565b614b5b81614382565b8114614b6657600080fd5b50565b614b728161438e565b8114614b7d57600080fd5b50565b614b89816143da565b8114614b9457600080fd5b5056fea2646970667358221220782d6391bf11e561545a498522677cc70eb73b88e720b4b99ce784b90d6ca24264736f6c63430008020033",
  "linkReferences": {},
  "deployedLinkReferences": {}
}